{
  "contractName": "TopicShareBounty",
  "abi": [
    {
      "constant": false,
      "inputs": [],
      "name": "unpause",
      "outputs": [],
      "payable": false,
      "stateMutability": "nonpayable",
      "type": "function",
      "signature": "0x3f4ba83a"
    },
    {
      "constant": true,
      "inputs": [],
      "name": "paused",
      "outputs": [
        {
          "name": "",
          "type": "bool"
        }
      ],
      "payable": false,
      "stateMutability": "view",
      "type": "function",
      "signature": "0x5c975abb"
    },
    {
      "constant": false,
      "inputs": [],
      "name": "destroy",
      "outputs": [],
      "payable": false,
      "stateMutability": "nonpayable",
      "type": "function",
      "signature": "0x83197ef0"
    },
    {
      "constant": false,
      "inputs": [],
      "name": "pause",
      "outputs": [],
      "payable": false,
      "stateMutability": "nonpayable",
      "type": "function",
      "signature": "0x8456cb59"
    },
    {
      "constant": true,
      "inputs": [],
      "name": "owner",
      "outputs": [
        {
          "name": "",
          "type": "address"
        }
      ],
      "payable": false,
      "stateMutability": "view",
      "type": "function",
      "signature": "0x8da5cb5b"
    },
    {
      "constant": true,
      "inputs": [
        {
          "name": "",
          "type": "address"
        }
      ],
      "name": "availableCalls",
      "outputs": [
        {
          "name": "",
          "type": "uint256"
        }
      ],
      "payable": false,
      "stateMutability": "view",
      "type": "function",
      "signature": "0xb31916ab"
    },
    {
      "constant": true,
      "inputs": [],
      "name": "oracleContract",
      "outputs": [
        {
          "name": "",
          "type": "address"
        }
      ],
      "payable": false,
      "stateMutability": "view",
      "type": "function",
      "signature": "0xbece7532"
    },
    {
      "constant": true,
      "inputs": [],
      "name": "costPerCall",
      "outputs": [
        {
          "name": "",
          "type": "uint256"
        }
      ],
      "payable": false,
      "stateMutability": "view",
      "type": "function",
      "signature": "0xd44b9f32"
    },
    {
      "constant": true,
      "inputs": [
        {
          "name": "",
          "type": "uint256"
        }
      ],
      "name": "bounties",
      "outputs": [
        {
          "name": "issuer",
          "type": "address"
        },
        {
          "name": "fulfillmentAmount",
          "type": "uint256"
        },
        {
          "name": "balance",
          "type": "uint256"
        },
        {
          "name": "tweetText",
          "type": "string"
        },
        {
          "name": "topic",
          "type": "string"
        },
        {
          "name": "follows",
          "type": "string"
        },
        {
          "name": "bountyOpen",
          "type": "bool"
        }
      ],
      "payable": false,
      "stateMutability": "view",
      "type": "function",
      "signature": "0xdc2f8744"
    },
    {
      "constant": false,
      "inputs": [
        {
          "name": "newOwner",
          "type": "address"
        }
      ],
      "name": "transferOwnership",
      "outputs": [],
      "payable": false,
      "stateMutability": "nonpayable",
      "type": "function",
      "signature": "0xf2fde38b"
    },
    {
      "constant": false,
      "inputs": [
        {
          "name": "_recipient",
          "type": "address"
        }
      ],
      "name": "destroyAndSend",
      "outputs": [],
      "payable": false,
      "stateMutability": "nonpayable",
      "type": "function",
      "signature": "0xf5074f41"
    },
    {
      "inputs": [
        {
          "name": "_addr",
          "type": "address"
        }
      ],
      "payable": false,
      "stateMutability": "nonpayable",
      "type": "constructor",
      "signature": "constructor"
    },
    {
      "payable": false,
      "stateMutability": "nonpayable",
      "type": "fallback"
    },
    {
      "anonymous": false,
      "inputs": [
        {
          "indexed": false,
          "name": "_bountyId",
          "type": "uint256"
        }
      ],
      "name": "BountyCreated",
      "type": "event",
      "signature": "0xd213cfe5d89cdaace45766af58a3bf6d48e2e2408543c764db97840016b6f09b"
    },
    {
      "anonymous": false,
      "inputs": [
        {
          "indexed": false,
          "name": "_numOfCalls",
          "type": "uint256"
        }
      ],
      "name": "BountyBought",
      "type": "event",
      "signature": "0x618789a5b3e46aca54ec30fd74dd1f5cf54881a9c1c1a600cbc6c513f0293caf"
    },
    {
      "anonymous": false,
      "inputs": [
        {
          "indexed": false,
          "name": "_bountyId",
          "type": "uint256"
        },
        {
          "indexed": true,
          "name": "_fulfiller",
          "type": "address"
        },
        {
          "indexed": true,
          "name": "_fulfillmentId",
          "type": "uint256"
        }
      ],
      "name": "BountyFulfilled",
      "type": "event",
      "signature": "0xeb70bc86dda3bbb4f37b25318d4737f2641d3e315df2f59a123c5a0619710357"
    },
    {
      "anonymous": false,
      "inputs": [
        {
          "indexed": false,
          "name": "_bountyId",
          "type": "uint256"
        },
        {
          "indexed": true,
          "name": "_contributor",
          "type": "address"
        },
        {
          "indexed": false,
          "name": "_value",
          "type": "uint256"
        }
      ],
      "name": "ContributionAdded",
      "type": "event",
      "signature": "0x75aecd8d57cb4b1b263271bddb4961b993924dd466e6003c254832572d8a57e1"
    },
    {
      "anonymous": false,
      "inputs": [
        {
          "indexed": false,
          "name": "_bountyId",
          "type": "uint256"
        },
        {
          "indexed": true,
          "name": "_issuer",
          "type": "address"
        }
      ],
      "name": "BountyClosed",
      "type": "event",
      "signature": "0xfd8fb3c1e880315007f9520b97dbfe17dfd3f01a2cc3366472535504b0263c72"
    },
    {
      "anonymous": false,
      "inputs": [
        {
          "indexed": false,
          "name": "_bountyId",
          "type": "uint256"
        },
        {
          "indexed": false,
          "name": "_newFulfillmentAmount",
          "type": "uint256"
        }
      ],
      "name": "PayoutChanged",
      "type": "event",
      "signature": "0xbd00b2c7681f0eb5e432fdbd9dc0e1b93b1930c6137faf6507d04cba5e3e06a0"
    },
    {
      "anonymous": false,
      "inputs": [],
      "name": "Pause",
      "type": "event",
      "signature": "0x6985a02210a168e66602d3235cb6db0e70f92b3ba4d376a33c0f3d9434bff625"
    },
    {
      "anonymous": false,
      "inputs": [],
      "name": "Unpause",
      "type": "event",
      "signature": "0x7805862f689e2f13df9f062ff482ad3ad112aca9e0847911ed832e158c525b33"
    },
    {
      "anonymous": false,
      "inputs": [
        {
          "indexed": true,
          "name": "previousOwner",
          "type": "address"
        },
        {
          "indexed": true,
          "name": "newOwner",
          "type": "address"
        }
      ],
      "name": "OwnershipTransferred",
      "type": "event",
      "signature": "0x8be0079c531659141344cd1fd0a4f28419497f9722a3daafe3b4186f6b6457e0"
    },
    {
      "constant": false,
      "inputs": [
        {
          "name": "_addr",
          "type": "address"
        }
      ],
      "name": "setOracle",
      "outputs": [],
      "payable": false,
      "stateMutability": "nonpayable",
      "type": "function",
      "signature": "0x7adbf973"
    },
    {
      "constant": true,
      "inputs": [],
      "name": "getFee",
      "outputs": [
        {
          "name": "",
          "type": "uint256"
        }
      ],
      "payable": false,
      "stateMutability": "view",
      "type": "function",
      "signature": "0xced72f87"
    },
    {
      "constant": false,
      "inputs": [
        {
          "name": "_cost",
          "type": "uint256"
        }
      ],
      "name": "setCallCost",
      "outputs": [],
      "payable": false,
      "stateMutability": "nonpayable",
      "type": "function",
      "signature": "0xe1c5b395"
    },
    {
      "constant": false,
      "inputs": [
        {
          "name": "_bountyId",
          "type": "uint256"
        }
      ],
      "name": "contribute",
      "outputs": [],
      "payable": true,
      "stateMutability": "payable",
      "type": "function",
      "signature": "0xc1cbbca7"
    },
    {
      "constant": false,
      "inputs": [],
      "name": "buyCalls",
      "outputs": [],
      "payable": true,
      "stateMutability": "payable",
      "type": "function",
      "signature": "0x4b4fce50"
    },
    {
      "constant": false,
      "inputs": [
        {
          "name": "_fulfillmentAmount",
          "type": "uint256"
        },
        {
          "name": "_postId",
          "type": "string"
        },
        {
          "name": "_topic",
          "type": "string"
        },
        {
          "name": "_follows",
          "type": "string"
        }
      ],
      "name": "createBounty",
      "outputs": [
        {
          "name": "",
          "type": "uint256"
        }
      ],
      "payable": true,
      "stateMutability": "payable",
      "type": "function",
      "signature": "0xf00cf150"
    },
    {
      "constant": false,
      "inputs": [
        {
          "name": "_bountyId",
          "type": "uint256"
        },
        {
          "name": "_postId",
          "type": "string"
        }
      ],
      "name": "fulfillBounty",
      "outputs": [
        {
          "name": "",
          "type": "bool"
        }
      ],
      "payable": false,
      "stateMutability": "nonpayable",
      "type": "function",
      "signature": "0x1e688c14"
    },
    {
      "constant": false,
      "inputs": [
        {
          "name": "_bountyId",
          "type": "uint256"
        },
        {
          "name": "_newFulfillmentAmount",
          "type": "uint256"
        }
      ],
      "name": "changePayout",
      "outputs": [],
      "payable": true,
      "stateMutability": "payable",
      "type": "function",
      "signature": "0xc7fcf3a8"
    },
    {
      "constant": false,
      "inputs": [
        {
          "name": "_bountyId",
          "type": "uint256"
        }
      ],
      "name": "closeBounty",
      "outputs": [],
      "payable": false,
      "stateMutability": "nonpayable",
      "type": "function",
      "signature": "0xb988997f"
    },
    {
      "constant": true,
      "inputs": [
        {
          "name": "_bountyId",
          "type": "uint256"
        }
      ],
      "name": "getBounty",
      "outputs": [
        {
          "name": "",
          "type": "address"
        },
        {
          "name": "",
          "type": "string"
        },
        {
          "name": "",
          "type": "string"
        },
        {
          "name": "",
          "type": "string"
        },
        {
          "name": "",
          "type": "uint256"
        },
        {
          "name": "",
          "type": "uint256"
        },
        {
          "name": "",
          "type": "bool"
        }
      ],
      "payable": false,
      "stateMutability": "view",
      "type": "function",
      "signature": "0xee8c4bbf"
    },
    {
      "constant": true,
      "inputs": [
        {
          "name": "_bountyId",
          "type": "uint256"
        },
        {
          "name": "_postId",
          "type": "string"
        }
      ],
      "name": "checkBountyTweetsUsed",
      "outputs": [
        {
          "name": "",
          "type": "bool"
        }
      ],
      "payable": false,
      "stateMutability": "view",
      "type": "function",
      "signature": "0x68b63d28"
    },
    {
      "constant": true,
      "inputs": [],
      "name": "checkCalls",
      "outputs": [
        {
          "name": "",
          "type": "bool"
        }
      ],
      "payable": false,
      "stateMutability": "view",
      "type": "function",
      "signature": "0x5cacae7a"
    },
    {
      "constant": true,
      "inputs": [],
      "name": "getNumBounties",
      "outputs": [
        {
          "name": "",
          "type": "uint256"
        }
      ],
      "payable": false,
      "stateMutability": "view",
      "type": "function",
      "signature": "0x3278ba2f"
    },
    {
      "constant": true,
      "inputs": [
        {
          "name": "_bountyId",
          "type": "uint256"
        }
      ],
      "name": "getNumFulfillments",
      "outputs": [
        {
          "name": "",
          "type": "uint256"
        }
      ],
      "payable": false,
      "stateMutability": "view",
      "type": "function",
      "signature": "0xfbe334f8"
    },
    {
      "constant": true,
      "inputs": [
        {
          "name": "_bountyId",
          "type": "uint256"
        },
        {
          "name": "_fulfillmentId",
          "type": "uint256"
        }
      ],
      "name": "getFulfillment",
      "outputs": [
        {
          "name": "",
          "type": "uint256"
        },
        {
          "name": "",
          "type": "address"
        },
        {
          "name": "",
          "type": "string"
        }
      ],
      "payable": false,
      "stateMutability": "view",
      "type": "function",
      "signature": "0xb94b0a3a"
    },
    {
      "constant": true,
      "inputs": [
        {
          "name": "_postId",
          "type": "string"
        }
      ],
      "name": "getTweetText",
      "outputs": [
        {
          "name": "",
          "type": "string"
        }
      ],
      "payable": false,
      "stateMutability": "view",
      "type": "function",
      "signature": "0xcf2e2914"
    },
    {
      "constant": true,
      "inputs": [
        {
          "name": "_profileId",
          "type": "string"
        }
      ],
      "name": "getFollowers",
      "outputs": [
        {
          "name": "",
          "type": "string"
        }
      ],
      "payable": false,
      "stateMutability": "view",
      "type": "function",
      "signature": "0xd83a45f0"
    },
    {
      "constant": false,
      "inputs": [
        {
          "name": "_postId",
          "type": "string"
        }
      ],
      "name": "oraclizeTweet",
      "outputs": [],
      "payable": true,
      "stateMutability": "payable",
      "type": "function",
      "signature": "0xfae571ca"
    },
    {
      "constant": false,
      "inputs": [
        {
          "name": "_profileId",
          "type": "string"
        }
      ],
      "name": "oraclizeFollowers",
      "outputs": [],
      "payable": true,
      "stateMutability": "payable",
      "type": "function",
      "signature": "0x516586a8"
    }
  ],
  "bytecode": "0x608060405260008060146101000a81548160ff021916908315150217905550670de0b6b3a76400006006553480156200003757600080fd5b5060405160208062004acd83398101806040528101908080519060200190929190505050336000806101000a81548173ffffffffffffffffffffffffffffffffffffffff021916908373ffffffffffffffffffffffffffffffffffffffff16021790555033600160006101000a81548173ffffffffffffffffffffffffffffffffffffffff021916908373ffffffffffffffffffffffffffffffffffffffff160217905550620000f681620000fd640100000000026401000000009004565b506200019d565b6000809054906101000a900473ffffffffffffffffffffffffffffffffffffffff1673ffffffffffffffffffffffffffffffffffffffff163373ffffffffffffffffffffffffffffffffffffffff161415156200015957600080fd5b80600560006101000a81548173ffffffffffffffffffffffffffffffffffffffff021916908373ffffffffffffffffffffffffffffffffffffffff16021790555050565b61492080620001ad6000396000f300608060405260043610610180576000357c0100000000000000000000000000000000000000000000000000000000900463ffffffff1680631e688c14146101fb5780633278ba2f146102865780633f4ba83a146102b15780634b4fce50146102c8578063516586a8146102d25780635c975abb1461032e5780635cacae7a1461035d57806368b63d281461038c5780637adbf9731461041757806383197ef01461045a5780638456cb59146104715780638da5cb5b14610488578063b31916ab146104df578063b94b0a3a14610536578063b988997f14610620578063bece75321461064d578063c1cbbca7146106a4578063c7fcf3a8146106c4578063ced72f87146106ee578063cf2e291414610719578063d44b9f32146107fb578063d83a45f014610826578063dc2f874414610908578063e1c5b39514610ad2578063ee8c4bbf14610aff578063f00cf15014610cc9578063f2fde38b14610dcf578063f5074f4114610e12578063fae571ca14610e55578063fbe334f814610eb1575b34801561018c57600080fd5b506040517f08c379a000000000000000000000000000000000000000000000000000000000815260040180806020018281038252601f8152602001807f46616c6c6261636b2066756e6374696f6e2e20526576657274696e672e2e2e0081525060200191505060405180910390fd5b34801561020757600080fd5b5061026c60048036038101908080359060200190929190803590602001908201803590602001908080601f0160208091040260200160405190810160405280939291908181526020018383808284378201915050505050509192919290505050610ef2565b604051808215151515815260200191505060405180910390f35b34801561029257600080fd5b5061029b611b9a565b6040518082815260200191505060405180910390f35b3480156102bd57600080fd5b506102c6611ba7565b005b6102d0611c65565b005b61032c600480360381019080803590602001908201803590602001908080601f0160208091040260200160405190810160405280939291908181526020018383808284378201915050505050509192919290505050611e04565b005b34801561033a57600080fd5b50610343611f32565b604051808215151515815260200191505060405180910390f35b34801561036957600080fd5b50610372611f45565b604051808215151515815260200191505060405180910390f35b34801561039857600080fd5b506103fd60048036038101908080359060200190929190803590602001908201803590602001908080601f0160208091040260200160405190810160405280939291908181526020018383808284378201915050505050509192919290505050611f8e565b604051808215151515815260200191505060405180910390f35b34801561042357600080fd5b50610458600480360381019080803573ffffffffffffffffffffffffffffffffffffffff16906020019092919050505061212b565b005b34801561046657600080fd5b5061046f6121ca565b005b34801561047d57600080fd5b5061048661225f565b005b34801561049457600080fd5b5061049d61231f565b604051808273ffffffffffffffffffffffffffffffffffffffff1673ffffffffffffffffffffffffffffffffffffffff16815260200191505060405180910390f35b3480156104eb57600080fd5b50610520600480360381019080803573ffffffffffffffffffffffffffffffffffffffff169060200190929190505050612345565b6040518082815260200191505060405180910390f35b34801561054257600080fd5b5061056b600480360381019080803590602001909291908035906020019092919050505061235d565b604051808481526020018373ffffffffffffffffffffffffffffffffffffffff1673ffffffffffffffffffffffffffffffffffffffff16815260200180602001828103825283818151815260200191508051906020019080838360005b838110156105e35780820151818401526020810190506105c8565b50505050905090810190601f1680156106105780820380516001836020036101000a031916815260200191505b5094505050505060405180910390f35b34801561062c57600080fd5b5061064b600480360381019080803590602001909291905050506125cf565b005b34801561065957600080fd5b50610662612932565b604051808273ffffffffffffffffffffffffffffffffffffffff1673ffffffffffffffffffffffffffffffffffffffff16815260200191505060405180910390f35b6106c260048036038101908080359060200190929190505050612958565b005b6106ec6004803603810190808035906020019092919080359060200190929190505050612b24565b005b3480156106fa57600080fd5b50610703612f46565b6040518082815260200191505060405180910390f35b34801561072557600080fd5b50610780600480360381019080803590602001908201803590602001908080601f0160208091040260200160405190810160405280939291908181526020018383808284378201915050505050509192919290505050612f50565b6040518080602001828103825283818151815260200191508051906020019080838360005b838110156107c05780820151818401526020810190506107a5565b50505050905090810190601f1680156107ed5780820380516001836020036101000a031916815260200191505b509250505060405180910390f35b34801561080757600080fd5b506108106130e0565b6040518082815260200191505060405180910390f35b34801561083257600080fd5b5061088d600480360381019080803590602001908201803590602001908080601f01602080910402602001604051908101604052809392919081815260200183838082843782019150505050505091929192905050506130e6565b6040518080602001828103825283818151815260200191508051906020019080838360005b838110156108cd5780820151818401526020810190506108b2565b50505050905090810190601f1680156108fa5780820380516001836020036101000a031916815260200191505b509250505060405180910390f35b34801561091457600080fd5b5061093360048036038101908080359060200190929190505050613276565b604051808873ffffffffffffffffffffffffffffffffffffffff1673ffffffffffffffffffffffffffffffffffffffff16815260200187815260200186815260200180602001806020018060200185151515158152602001848103845288818151815260200191508051906020019080838360005b838110156109c35780820151818401526020810190506109a8565b50505050905090810190601f1680156109f05780820380516001836020036101000a031916815260200191505b50848103835287818151815260200191508051906020019080838360005b83811015610a29578082015181840152602081019050610a0e565b50505050905090810190601f168015610a565780820380516001836020036101000a031916815260200191505b50848103825286818151815260200191508051906020019080838360005b83811015610a8f578082015181840152602081019050610a74565b50505050905090810190601f168015610abc5780820380516001836020036101000a031916815260200191505b509a505050505050505050505060405180910390f35b348015610ade57600080fd5b50610afd600480360381019080803590602001909291905050506134bc565b005b348015610b0b57600080fd5b50610b2a60048036038101908080359060200190929190505050613521565b604051808873ffffffffffffffffffffffffffffffffffffffff1673ffffffffffffffffffffffffffffffffffffffff1681526020018060200180602001806020018781526020018681526020018515151515815260200184810384528a818151815260200191508051906020019080838360005b83811015610bba578082015181840152602081019050610b9f565b50505050905090810190601f168015610be75780820380516001836020036101000a031916815260200191505b50848103835289818151815260200191508051906020019080838360005b83811015610c20578082015181840152602081019050610c05565b50505050905090810190601f168015610c4d5780820380516001836020036101000a031916815260200191505b50848103825288818151815260200191508051906020019080838360005b83811015610c86578082015181840152602081019050610c6b565b50505050905090810190601f168015610cb35780820380516001836020036101000a031916815260200191505b509a505050505050505050505060405180910390f35b610db960048036038101908080359060200190929190803590602001908201803590602001908080601f0160208091040260200160405190810160405280939291908181526020018383808284378201915050505050509192919290803590602001908201803590602001908080601f0160208091040260200160405190810160405280939291908181526020018383808284378201915050505050509192919290803590602001908201803590602001908080601f01602080910402602001604051908101604052809392919081815260200183838082843782019150505050505091929192905050506138a9565b6040518082815260200191505060405180910390f35b348015610ddb57600080fd5b50610e10600480360381019080803573ffffffffffffffffffffffffffffffffffffffff169060200190929190505050613fc3565b005b348015610e1e57600080fd5b50610e53600480360381019080803573ffffffffffffffffffffffffffffffffffffffff169060200190929190505050614118565b005b610eaf600480360381019080803590602001908201803590602001908080601f016020809104026020016040519081016040528093929190818152602001838380828437820191505050505050919291929050505061418c565b005b348015610ebd57600080fd5b50610edc600480360381019080803590602001909291905050506142ba565b6040518082815260200191505060405180910390f35b60008060149054906101000a900460ff16151515610f0f57600080fd5b8260028054905081101515610f8c576040517f08c379a00000000000000000000000000000000000000000000000000000000081526004018080602001828103825260128152602001807f496e76616c696420426f756e74792049442e000000000000000000000000000081525060200191505060405180910390fd5b836003600082815260200190815260200160002080549050600160036000848152602001908152602001600020805490500111151561107f576040517f08c379a00000000000000000000000000000000000000000000000000000000081526004018080602001828103825260458152602001807f54686572652061726520746f6f206d616e792066756c66696c6c6d656e74732081526020017f666f72207468697320626f756e74792c2063617573696e6720616e206f76657281526020017f666c6f772e00000000000000000000000000000000000000000000000000000081525060600191505060405180910390fd5b846001151560028281548110151561109357fe5b906000526020600020906008020160060160009054906101000a900460ff161515141515611129576040517f08c379a00000000000000000000000000000000000000000000000000000000081526004018080602001828103825260138152602001807f426f756e7479206973206e6f74206f70656e2e0000000000000000000000000081525060200191505060405180910390fd5b8560028181548110151561113957fe5b90600052602060002090600802016001015460028281548110151561115a57fe5b9060005260206000209060080201600201541015151561122e576040517f08c379a000000000000000000000000000000000000000000000000000000000815260040180806020018281038252604a8152602001807f5468652066756c66696c6c6d656e7420616d6f756e74206973206d6f7265207481526020017f68616e207468652062616c616e636520617661696c61626c6520666f7220746881526020017f697320626f756e74792e0000000000000000000000000000000000000000000081525060600191505060405180910390fd5b86866112a261129b61129661129161127a6040805190810160405280600181526020017f2f000000000000000000000000000000000000000000000000000000000000008152506142da565b611283866142da565b61430890919063ffffffff16565b614322565b6130e6565b6000614384565b6113656002848154811015156112b457fe5b90600052602060002090600802016005018054600181600116156101000203166002900480601f0160208091040260200160405190810160405280929190818152602001828054600181600116156101000203166002900480156113595780601f1061132e57610100808354040283529160200191611359565b820191906000526020600020905b81548152906001019060200180831161133c57829003601f168201915b50505050506000614384565b11151515611401576040517f08c379a00000000000000000000000000000000000000000000000000000000081526004018080602001828103825260338152602001807f546865726520617265206e6f7420656e6f75676820666f6c6c6f77657273207481526020017f6f20636c61696d20746865207265776172642e0000000000000000000000000081525060400191505060405180910390fd5b6001151560028a81548110151561141457fe5b906000526020600020906008020160070160008a6040516020018082805190602001908083835b602083101515611460578051825260208201915060208101905060208303925061143b565b6001836020036101000a0380198251168184511680821785525050505050509050019150506040516020818303038152906040526040518082805190602001908083835b6020831015156114c957805182526020820191506020810190506020830392506114a4565b6001836020036101000a03801982511681845116808217855250505050505090500191505060405180910390206000191660001916815260200190815260200160002060009054906101000a900460ff161515141515156115de576040517f08c379a00000000000000000000000000000000000000000000000000000000081526004018080602001828103825260468152602001807f54686520747765657420796f752061726520747279696e6720746f207573652081526020017f68617320616c7265616479206265656e207573656420666f722074686973206281526020017f6f756e74792e000000000000000000000000000000000000000000000000000081525060600191505060405180910390fd5b6115e788612f50565b6040516020018082805190602001908083835b60208310151561161f57805182526020820191506020810190506020830392506115fa565b6001836020036101000a0380198251168184511680821785525050505050509050019150506040516020818303038152906040526040518082805190602001908083835b6020831015156116885780518252602082019150602081019050602083039250611663565b6001836020036101000a03801982511681845116808217855250505050505090500191505060405180910390206000191660028a8154811015156116c857fe5b906000526020600020906008020160030160405160200180828054600181600116156101000203166002900480156117375780601f10611715576101008083540402835291820191611737565b820191906000526020600020905b815481529060010190602001808311611723575b50509150506040516020818303038152906040526040518082805190602001908083835b602083101515611780578051825260208201915060208101905060208303925061175b565b6001836020036101000a03801982511681845116808217855250505050505090500191505060405180910390206000191614151561184c576040517f08c379a000000000000000000000000000000000000000000000000000000000815260040180806020018281038252603f8152602001807f54686520747765657420796f752061726520747279696e6720746f207573652081526020017f646f6573206e6f74206d617463682074686520626f756e747920746578742e0081525060400191505060405180910390fd5b600160028a81548110151561185d57fe5b906000526020600020906008020160070160008a6040516020018082805190602001908083835b6020831015156118a95780518252602082019150602081019050602083039250611884565b6001836020036101000a0380198251168184511680821785525050505050509050019150506040516020818303038152906040526040518082805190602001908083835b60208310151561191257805182526020820191506020810190506020830392506118ed565b6001836020036101000a03801982511681845116808217855250505050505090500191505060405180910390206000191660001916815260200190815260200160002060006101000a81548160ff021916908315150217905550600360008a815260200190815260200160002060606040519081016040528060028c81548110151561199a57fe5b90600052602060002090600802016001015481526020013373ffffffffffffffffffffffffffffffffffffffff1681526020018a815250908060018154018082558091505090600182039060005260206000209060030201600090919290919091506000820151816000015560208201518160010160006101000a81548173ffffffffffffffffffffffffffffffffffffffff021916908373ffffffffffffffffffffffffffffffffffffffff1602179055506040820151816002019080519060200190611a69929190614835565b50505050600289815481101515611a7c57fe5b90600052602060002090600802016001015460028a815481101515611a9d57fe5b9060005260206000209060080201600201600082825403925050819055503373ffffffffffffffffffffffffffffffffffffffff166108fc60028b815481101515611ae457fe5b9060005260206000209060080201600101549081150290604051600060405180830381858888f19350505050158015611b21573d6000803e3d6000fd5b506001600360008b815260200190815260200160002080549050033373ffffffffffffffffffffffffffffffffffffffff167feb70bc86dda3bbb4f37b25318d4737f2641d3e315df2f59a123c5a06197103578b6040518082815260200191505060405180910390a36001965050505050505092915050565b6000600280549050905090565b6000809054906101000a900473ffffffffffffffffffffffffffffffffffffffff1673ffffffffffffffffffffffffffffffffffffffff163373ffffffffffffffffffffffffffffffffffffffff16141515611c0257600080fd5b600060149054906101000a900460ff161515611c1d57600080fd5b60008060146101000a81548160ff0219169083151502179055507f7805862f689e2f13df9f062ff482ad3ad112aca9e0847911ed832e158c525b3360405160405180910390a1565b60008034111515611d04576040517f08c379a00000000000000000000000000000000000000000000000000000000081526004018080602001828103825260318152602001807f596f75206e65656420746f2073656e6420736f6d65206574686572207769746881526020017f20746865207472616e73616374696f6e2100000000000000000000000000000081525060400191505060405180910390fd5b600160009054906101000a900473ffffffffffffffffffffffffffffffffffffffff1673ffffffffffffffffffffffffffffffffffffffff166108fc349081150290604051600060405180830381858888f19350505050158015611d6c573d6000803e3d6000fd5b5060065434811515611d7a57fe5b04905080600460003373ffffffffffffffffffffffffffffffffffffffff1673ffffffffffffffffffffffffffffffffffffffff168152602001908152602001600020600082825401925050819055507f618789a5b3e46aca54ec30fd74dd1f5cf54881a9c1c1a600cbc6c513f0293caf816040518082815260200191505060405180910390a150565b600060149054906101000a900460ff16151515611e2057600080fd5b600560009054906101000a900473ffffffffffffffffffffffffffffffffffffffff1673ffffffffffffffffffffffffffffffffffffffff1663516586a834836040518363ffffffff167c01000000000000000000000000000000000000000000000000000000000281526004018080602001828103825283818151815260200191508051906020019080838360005b83811015611ecb578082015181840152602081019050611eb0565b50505050905090810190601f168015611ef85780820380516001836020036101000a031916815260200191505b50925050506000604051808303818588803b158015611f1657600080fd5b505af1158015611f2a573d6000803e3d6000fd5b505050505050565b600060149054906101000a900460ff1681565b600080600460003373ffffffffffffffffffffffffffffffffffffffff1673ffffffffffffffffffffffffffffffffffffffff1681526020019081526020016000205411905090565b6000826002805490508110151561200d576040517f08c379a00000000000000000000000000000000000000000000000000000000081526004018080602001828103825260128152602001807f496e76616c696420426f756e74792049442e000000000000000000000000000081525060200191505060405180910390fd5b60028481548110151561201c57fe5b90600052602060002090600802016007016000846040516020018082805190602001908083835b6020831015156120685780518252602082019150602081019050602083039250612043565b6001836020036101000a0380198251168184511680821785525050505050509050019150506040516020818303038152906040526040518082805190602001908083835b6020831015156120d157805182526020820191506020810190506020830392506120ac565b6001836020036101000a03801982511681845116808217855250505050505090500191505060405180910390206000191660001916815260200190815260200160002060009054906101000a900460ff1691505092915050565b6000809054906101000a900473ffffffffffffffffffffffffffffffffffffffff1673ffffffffffffffffffffffffffffffffffffffff163373ffffffffffffffffffffffffffffffffffffffff1614151561218657600080fd5b80600560006101000a81548173ffffffffffffffffffffffffffffffffffffffff021916908373ffffffffffffffffffffffffffffffffffffffff16021790555050565b6000809054906101000a900473ffffffffffffffffffffffffffffffffffffffff1673ffffffffffffffffffffffffffffffffffffffff163373ffffffffffffffffffffffffffffffffffffffff1614151561222557600080fd5b6000809054906101000a900473ffffffffffffffffffffffffffffffffffffffff1673ffffffffffffffffffffffffffffffffffffffff16ff5b6000809054906101000a900473ffffffffffffffffffffffffffffffffffffffff1673ffffffffffffffffffffffffffffffffffffffff163373ffffffffffffffffffffffffffffffffffffffff161415156122ba57600080fd5b600060149054906101000a900460ff161515156122d657600080fd5b6001600060146101000a81548160ff0219169083151502179055507f6985a02210a168e66602d3235cb6db0e70f92b3ba4d376a33c0f3d9434bff62560405160405180910390a1565b600160009054906101000a900473ffffffffffffffffffffffffffffffffffffffff1681565b60046020528060005260406000206000915090505481565b600080606084600280549050811015156123df576040517f08c379a00000000000000000000000000000000000000000000000000000000081526004018080602001828103825260128152602001807f496e76616c696420426f756e74792049442e000000000000000000000000000081525060200191505060405180910390fd5b858560036000838152602001908152602001600020805490508110151561246e576040517f08c379a00000000000000000000000000000000000000000000000000000000081526004018080602001828103825260178152602001807f496e76616c69642046756c66696c6c6d656e742049442e00000000000000000081525060200191505060405180910390fd5b600360008981526020019081526020016000208781548110151561248e57fe5b906000526020600020906003020160000154600360008a8152602001908152602001600020888154811015156124c057fe5b906000526020600020906003020160010160009054906101000a900473ffffffffffffffffffffffffffffffffffffffff16600360008b81526020019081526020016000208981548110151561251257fe5b9060005260206000209060030201600201808054600181600116156101000203166002900480601f0160208091040260200160405190810160405280929190818152602001828054600181600116156101000203166002900480156125b85780601f1061258d576101008083540402835291602001916125b8565b820191906000526020600020905b81548152906001019060200180831161259b57829003601f168201915b505050505090509550955095505050509250925092565b60008060149054906101000a900460ff161515156125ec57600080fd5b8160028054905081101515612669576040517f08c379a00000000000000000000000000000000000000000000000000000000081526004018080602001828103825260128152602001807f496e76616c696420426f756e74792049442e000000000000000000000000000081525060200191505060405180910390fd5b823373ffffffffffffffffffffffffffffffffffffffff1660028281548110151561269057fe5b906000526020600020906008020160000160009054906101000a900473ffffffffffffffffffffffffffffffffffffffff1673ffffffffffffffffffffffffffffffffffffffff1614806127315750600160009054906101000a900473ffffffffffffffffffffffffffffffffffffffff1673ffffffffffffffffffffffffffffffffffffffff163373ffffffffffffffffffffffffffffffffffffffff16145b15156127cb576040517f08c379a000000000000000000000000000000000000000000000000000000000815260040180806020018281038252603f8152602001807f4f6e6c792074686520697373756572206f66207468697320626f756e7479206f81526020017f72206f776e65722063616e2063616c6c20746869732066756e6374696f6e2e0081525060400191505060405180910390fd5b60006002858154811015156127dc57fe5b906000526020600020906008020160060160006101000a81548160ff02191690831515021790555060028481548110151561281357fe5b9060005260206000209060080201600201549250600060028581548110151561283857fe5b90600052602060002090600802016002018190555060008311156128de5760028481548110151561286557fe5b906000526020600020906008020160000160009054906101000a900473ffffffffffffffffffffffffffffffffffffffff1673ffffffffffffffffffffffffffffffffffffffff166108fc849081150290604051600060405180830381858888f193505050501580156128dc573d6000803e3d6000fd5b505b3373ffffffffffffffffffffffffffffffffffffffff167ffd8fb3c1e880315007f9520b97dbfe17dfd3f01a2cc3366472535504b0263c72856040518082815260200191505060405180910390a250505050565b600560009054906101000a900473ffffffffffffffffffffffffffffffffffffffff1681565b600060149054906101000a900460ff1615151561297457600080fd5b80600280549050811015156129f1576040517f08c379a00000000000000000000000000000000000000000000000000000000081526004018080602001828103825260128152602001807f496e76616c696420426f756e74792049442e000000000000000000000000000081525060200191505060405180910390fd5b8160011515600282815481101515612a0557fe5b906000526020600020906008020160060160009054906101000a900460ff161515141515612a9b576040517f08c379a00000000000000000000000000000000000000000000000000000000081526004018080602001828103825260138152602001807f426f756e7479206973206e6f74206f70656e2e0000000000000000000000000081525060200191505060405180910390fd5b34600284815481101515612aab57fe5b9060005260206000209060080201600201600082825401925050819055503373ffffffffffffffffffffffffffffffffffffffff167f75aecd8d57cb4b1b263271bddb4961b993924dd466e6003c254832572d8a57e18434604051808381526020018281526020019250505060405180910390a2505050565b600060149054906101000a900460ff16151515612b4057600080fd5b8160028054905081101515612bbd576040517f08c379a00000000000000000000000000000000000000000000000000000000081526004018080602001828103825260128152602001807f496e76616c696420426f756e74792049442e000000000000000000000000000081525060200191505060405180910390fd5b823373ffffffffffffffffffffffffffffffffffffffff16600282815481101515612be457fe5b906000526020600020906008020160000160009054906101000a900473ffffffffffffffffffffffffffffffffffffffff1673ffffffffffffffffffffffffffffffffffffffff161480612c855750600160009054906101000a900473ffffffffffffffffffffffffffffffffffffffff1673ffffffffffffffffffffffffffffffffffffffff163373ffffffffffffffffffffffffffffffffffffffff16145b1515612d1f576040517f08c379a00000000000000000000000000000000000000000000000000000000081526004018080602001828103825260368152602001807f4f6e6c792074686520697373756572206f66207468697320626f756e7479206381526020017f616e2063616c6c20746869732066756e6374696f6e2e0000000000000000000081525060400191505060405180910390fd5b8360011515600282815481101515612d3357fe5b906000526020600020906008020160060160009054906101000a900460ff161515141515612dc9576040517f08c379a00000000000000000000000000000000000000000000000000000000081526004018080602001828103825260138152602001807f426f756e7479206973206e6f74206f70656e2e0000000000000000000000000081525060200191505060405180910390fd5b34600286815481101515612dd957fe5b90600052602060002090600802016002016000828254019250508190555083600286815481101515612e0757fe5b90600052602060002090600802016002015410151515612edb576040517f08c379a000000000000000000000000000000000000000000000000000000000815260040180806020018281038252604d8152602001807f4d616b652073757265207468652066756c66696c6c6d656e7420616d6f756e7481526020017f206973206e6f74206d6f7265207468616e207468652063757272656e7420626f81526020017f756e74792062616c616e63652e0000000000000000000000000000000000000081525060600191505060405180910390fd5b83600286815481101515612eeb57fe5b9060005260206000209060080201600101819055507fbd00b2c7681f0eb5e432fdbd9dc0e1b93b1930c6137faf6507d04cba5e3e06a08585604051808381526020018281526020019250505060405180910390a15050505050565b6000600654905090565b6060600560009054906101000a900473ffffffffffffffffffffffffffffffffffffffff1673ffffffffffffffffffffffffffffffffffffffff1663cf2e2914836040518263ffffffff167c01000000000000000000000000000000000000000000000000000000000281526004018080602001828103825283818151815260200191508051906020019080838360005b83811015612ffc578082015181840152602081019050612fe1565b50505050905090810190601f1680156130295780820380516001836020036101000a031916815260200191505b5092505050600060405180830381600087803b15801561304857600080fd5b505af115801561305c573d6000803e3d6000fd5b505050506040513d6000823e3d601f19601f82011682018060405250602081101561308657600080fd5b81019080805164010000000081111561309e57600080fd5b828101905060208101848111156130b457600080fd5b81518560018202830111640100000000821117156130d157600080fd5b50509291905050509050919050565b60065481565b6060600560009054906101000a900473ffffffffffffffffffffffffffffffffffffffff1673ffffffffffffffffffffffffffffffffffffffff1663d83a45f0836040518263ffffffff167c01000000000000000000000000000000000000000000000000000000000281526004018080602001828103825283818151815260200191508051906020019080838360005b83811015613192578082015181840152602081019050613177565b50505050905090810190601f1680156131bf5780820380516001836020036101000a031916815260200191505b5092505050600060405180830381600087803b1580156131de57600080fd5b505af11580156131f2573d6000803e3d6000fd5b505050506040513d6000823e3d601f19601f82011682018060405250602081101561321c57600080fd5b81019080805164010000000081111561323457600080fd5b8281019050602081018481111561324a57600080fd5b815185600182028301116401000000008211171561326757600080fd5b50509291905050509050919050565b60028181548110151561328557fe5b90600052602060002090600802016000915090508060000160009054906101000a900473ffffffffffffffffffffffffffffffffffffffff1690806001015490806002015490806003018054600181600116156101000203166002900480601f0160208091040260200160405190810160405280929190818152602001828054600181600116156101000203166002900480156133635780601f1061333857610100808354040283529160200191613363565b820191906000526020600020905b81548152906001019060200180831161334657829003601f168201915b505050505090806004018054600181600116156101000203166002900480601f0160208091040260200160405190810160405280929190818152602001828054600181600116156101000203166002900480156134015780601f106133d657610100808354040283529160200191613401565b820191906000526020600020905b8154815290600101906020018083116133e457829003601f168201915b505050505090806005018054600181600116156101000203166002900480601f01602080910402602001604051908101604052809291908181526020018280546001816001161561010002031660029004801561349f5780601f106134745761010080835404028352916020019161349f565b820191906000526020600020905b81548152906001019060200180831161348257829003601f168201915b5050505050908060060160009054906101000a900460ff16905087565b6000809054906101000a900473ffffffffffffffffffffffffffffffffffffffff1673ffffffffffffffffffffffffffffffffffffffff163373ffffffffffffffffffffffffffffffffffffffff1614151561351757600080fd5b8060068190555050565b60006060806060600080600087600280549050811015156135aa576040517f08c379a00000000000000000000000000000000000000000000000000000000081526004018080602001828103825260128152602001807f496e76616c696420426f756e74792049442e000000000000000000000000000081525060200191505060405180910390fd5b6002898154811015156135b957fe5b906000526020600020906008020160000160009054906101000a900473ffffffffffffffffffffffffffffffffffffffff1660028a8154811015156135fa57fe5b906000526020600020906008020160030160028b81548110151561361a57fe5b906000526020600020906008020160040160028c81548110151561363a57fe5b906000526020600020906008020160050160028d81548110151561365a57fe5b90600052602060002090600802016001015460028e81548110151561367b57fe5b90600052602060002090600802016002015460028f81548110151561369c57fe5b906000526020600020906008020160060160009054906101000a900460ff16858054600181600116156101000203166002900480601f0160208091040260200160405190810160405280929190818152602001828054600181600116156101000203166002900480156137505780601f1061372557610100808354040283529160200191613750565b820191906000526020600020905b81548152906001019060200180831161373357829003601f168201915b50505050509550848054600181600116156101000203166002900480601f0160208091040260200160405190810160405280929190818152602001828054600181600116156101000203166002900480156137ec5780601f106137c1576101008083540402835291602001916137ec565b820191906000526020600020905b8154815290600101906020018083116137cf57829003601f168201915b50505050509450838054600181600116156101000203166002900480601f0160208091040260200160405190810160405280929190818152602001828054600181600116156101000203166002900480156138885780601f1061385d57610100808354040283529160200191613888565b820191906000526020600020905b81548152906001019060200180831161386b57829003601f168201915b50505050509350975097509750975097509750975050919395979092949650565b60008060149054906101000a900460ff161515156138c657600080fd5b6000600460003373ffffffffffffffffffffffffffffffffffffffff1673ffffffffffffffffffffffffffffffffffffffff168152602001908152602001600020541115156139a3576040517f08c379a00000000000000000000000000000000000000000000000000000000081526004018080602001828103825260348152602001807f43616e2774206372656174652063616d706169676e20776974686f757420696e81526020017f697469616c697a696e672069742066697273742e00000000000000000000000081525060400191505060405180910390fd5b8460008114151515613a1d576040517f08c379a000000000000000000000000000000000000000000000000000000000815260040180806020018281038252601a8152602001807f54686520616d6f756e742063616e6e6f74206265207a65726f2e00000000000081525060200191505060405180910390fd5b600280549050600160028054905001111515613ac7576040517f08c379a000000000000000000000000000000000000000000000000000000000815260040180806020018281038252603c8152602001807f54686572652061726520746f6f206d616e7920626f756e74696573207265676981526020017f7374657265642c2063617573696e6720616e206f766572666c6f772e0000000081525060400191505060405180910390fd5b84604051806000019050604051809103902060001916613ae682612f50565b6040516020018082805190602001908083835b602083101515613b1e5780518252602082019150602081019050602083039250613af9565b6001836020036101000a0380198251168184511680821785525050505050509050019150506040516020818303038152906040526040518082805190602001908083835b602083101515613b875780518252602082019150602081019050602083039250613b62565b6001836020036101000a03801982511681845116808217855250505050505090500191505060405180910390206000191614151515613ca0576040517f08c379a00000000000000000000000000000000000000000000000000000000081526004018080602001828103825260718152602001807f546865207477656574207465787420697320656d7074792e205468697320747781526020017f656574206d61792068617665206e65766572206265656e206f7261636c697a6581526020017f642c206f72206d617920686176652072756e20696e746f20616e20697373756581526020017f207768656e206f7261636c697a696e672e00000000000000000000000000000081525060800191505060405180910390fd5b600260e0604051908101604052803373ffffffffffffffffffffffffffffffffffffffff168152602001898152602001348152602001613cdf89612f50565b8152602001878152602001868152602001600115158152509080600181540180825580915050906001820390600052602060002090600802016000909192909190915060008201518160000160006101000a81548173ffffffffffffffffffffffffffffffffffffffff021916908373ffffffffffffffffffffffffffffffffffffffff16021790555060208201518160010155604082015181600201556060820151816003019080519060200190613d99929190614835565b506080820151816004019080519060200190613db6929190614835565b5060a0820151816005019080519060200190613dd3929190614835565b5060c08201518160060160006101000a81548160ff02191690831515021790555050505060016002600160028054905003815481101515613e1057fe5b90600052602060002090600802016007016000886040516020018082805190602001908083835b602083101515613e5c5780518252602082019150602081019050602083039250613e37565b6001836020036101000a0380198251168184511680821785525050505050509050019150506040516020818303038152906040526040518082805190602001908083835b602083101515613ec55780518252602082019150602081019050602083039250613ea0565b6001836020036101000a03801982511681845116808217855250505050505090500191505060405180910390206000191660001916815260200190815260200160002060006101000a81548160ff021916908315150217905550600460003373ffffffffffffffffffffffffffffffffffffffff1673ffffffffffffffffffffffffffffffffffffffff16815260200190815260200160002060008154809291906001900391905055507fd213cfe5d89cdaace45766af58a3bf6d48e2e2408543c764db97840016b6f09b6001600280549050036040518082815260200191505060405180910390a160016002805490500392505050949350505050565b6000809054906101000a900473ffffffffffffffffffffffffffffffffffffffff1673ffffffffffffffffffffffffffffffffffffffff163373ffffffffffffffffffffffffffffffffffffffff1614151561401e57600080fd5b600073ffffffffffffffffffffffffffffffffffffffff168173ffffffffffffffffffffffffffffffffffffffff161415151561405a57600080fd5b8073ffffffffffffffffffffffffffffffffffffffff166000809054906101000a900473ffffffffffffffffffffffffffffffffffffffff1673ffffffffffffffffffffffffffffffffffffffff167f8be0079c531659141344cd1fd0a4f28419497f9722a3daafe3b4186f6b6457e060405160405180910390a3806000806101000a81548173ffffffffffffffffffffffffffffffffffffffff021916908373ffffffffffffffffffffffffffffffffffffffff16021790555050565b6000809054906101000a900473ffffffffffffffffffffffffffffffffffffffff1673ffffffffffffffffffffffffffffffffffffffff163373ffffffffffffffffffffffffffffffffffffffff1614151561417357600080fd5b8073ffffffffffffffffffffffffffffffffffffffff16ff5b600060149054906101000a900460ff161515156141a857600080fd5b600560009054906101000a900473ffffffffffffffffffffffffffffffffffffffff1673ffffffffffffffffffffffffffffffffffffffff1663fae571ca34836040518363ffffffff167c01000000000000000000000000000000000000000000000000000000000281526004018080602001828103825283818151815260200191508051906020019080838360005b83811015614253578082015181840152602081019050614238565b50505050905090810190601f1680156142805780820380516001836020036101000a031916815260200191505b50925050506000604051808303818588803b15801561429e57600080fd5b505af11580156142b2573d6000803e3d6000fd5b505050505050565b600060036000838152602001908152602001600020805490509050919050565b6142e26148b5565b600060208301905060408051908101604052808451815260200182815250915050919050565b6143106148b5565b61431b838383614666565b5092915050565b606080600083600001516040519080825280601f01601f19166020018201604052801561435e5781602001602082028038833980820191505090505b50915060208201905061437a8185602001518660000151614704565b8192505050919050565b6000606060008060008693506000925060009150600090505b83518110156146595760307f01000000000000000000000000000000000000000000000000000000000000000284828151811015156143d857fe5b9060200101517f010000000000000000000000000000000000000000000000000000000000000090047f0100000000000000000000000000000000000000000000000000000000000000027effffffffffffffffffffffffffffffffffffffffffffffffffffffffffffff1916101580156144f0575060397f010000000000000000000000000000000000000000000000000000000000000002848281518110151561448057fe5b9060200101517f010000000000000000000000000000000000000000000000000000000000000090047f0100000000000000000000000000000000000000000000000000000000000000027effffffffffffffffffffffffffffffffffffffffffffffffffffffffffffff191611155b156145a157811561451357600086141561450957614659565b8580600190039650505b600a830292506030848281518110151561452957fe5b9060200101517f010000000000000000000000000000000000000000000000000000000000000090047f0100000000000000000000000000000000000000000000000000000000000000027f01000000000000000000000000000000000000000000000000000000000000009004038301925061464c565b602e7f01000000000000000000000000000000000000000000000000000000000000000284828151811015156145d357fe5b9060200101517f010000000000000000000000000000000000000000000000000000000000000090047f0100000000000000000000000000000000000000000000000000000000000000027effffffffffffffffffffffffffffffffffffffffffffffffffffffffffffff1916141561464b57600191505b5b808060010191505061439d565b8294505050505092915050565b61466e6148b5565b600061468c856000015186602001518660000151876020015161474f565b905084602001518360200181815250508460200151810383600001818152505084600001518560200151018114156146ce5760008560000181815250506146f9565b8360000151836000015101856000018181510391508181525050836000015181018560200181815250505b829150509392505050565b60005b60208210151561472c5782518452602084019350602083019250602082039150614707565b6001826020036101000a0390508019835116818551168181178652505050505050565b60008060008060008060008060008b97508c8b11151561481f5760208b1115156147d95760018b60200360080260020a03196001029550858a511694508a8d8d010393508588511692505b846000191683600019161415156147d15783881015156147be578c8c019850614825565b878060010198505085885116925061479a565b879850614825565b8a8a209150600096505b8a8d038711151561481e578a8820905080600019168260001916141561480b57879850614825565b60018801975086806001019750506147e3565b5b8c8c0198505b5050505050505050949350505050565b828054600181600116156101000203166002900490600052602060002090601f016020900481019282601f1061487657805160ff19168380011785556148a4565b828001600101855582156148a4579182015b828111156148a3578251825591602001919060010190614888565b5b5090506148b191906148cf565b5090565b604080519081016040528060008152602001600081525090565b6148f191905b808211156148ed5760008160009055506001016148d5565b5090565b905600a165627a7a72305820e87fe1fe82aaa38934c8bc70358ddb9030be1a0d46a40a349b725805156c571f0029",
  "source": "pragma solidity 0.4.25;\n\nimport \"installed_contracts/zeppelin/contracts/ownership/Ownable.sol\";\nimport \"installed_contracts/zeppelin/contracts/lifecycle/Pausable.sol\";\nimport \"installed_contracts/zeppelin/contracts/lifecycle/Destructible.sol\";\nimport \"installed_contracts/zeppelin/contracts/Strings.sol\";\n/// @title An interface for the Twitter Oracle contract\n/// @notice The Twitter Oracle contract allows users to retrieve and store twitter post text onto the blockchain\ninterface TopicShareOracle {\n\n    /// @notice Retrieve the tweet text for a given post stored in the contract\n    /// @dev Returned string may come back in an array syntax and will need to be parsed by the front-end\n    /// @param _postId The post id you want to retrieve text for. Expecting \"<user>/status/<id>\".\n    /// @return string of the text for that post\n    function getTweetText(string _postId) external view returns(string);\n\n    /// @param _profileId The post id you want to retrieve text for. Expecting \"<user>/status/<id>\".\n    /// @return string of the text for that post \n    function getFollowers(string _profileId) external view returns(string);\n\n    /// @notice Oraclize tweet text for a given post and store it in the contract\n    /// @dev Calling this function requires the Twitter Oracle contract has funds, thus this function is payable so the user can provide those funds\n    /// @param _postId The post id you want to oraclize. Expecting \"<user>/status/<id>\".\n    function oraclizeTweet(string _postId) external payable;\n\n    /// @param _profileId The post id you want to oraclize. Expecting \"<user>/status/<id>\".\n    function oraclizeFollowers(string _profileId) external payable;\n}\n\n/// @notice This contract follows many similar patterns to Bounties Network's StandardBounties.sol\ncontract TopicShareBounty is Ownable, Pausable, Destructible {\n    using Strings for *;\n    /* Storage */\n    address public owner;\n    Bounty[] public bounties;\n    mapping(uint => Fulfillment[]) fulfillments;\n    mapping(address => uint) public availableCalls;\n    TopicShareOracle public oracleContract;\n      \n    uint public costPerCall = 1 ether;\n\n    /* Structs */\n    struct Bounty {\n        address issuer;\n        uint256 fulfillmentAmount;\n        uint256 balance;\n        string tweetText;\n        string topic;\n        string follows;\n        bool bountyOpen;\n        mapping (bytes32 => bool) tweetsUsed;\n    }\n\n    struct Fulfillment {\n        uint256 fulfillmentAmount;\n        address fulfiller;\n        string tweetId;\n    }\n\n    /* Events */\n    event BountyCreated(uint _bountyId);\n    event BountyBought(uint _numOfCalls);\n    event BountyFulfilled(uint _bountyId, address indexed _fulfiller, uint256 indexed _fulfillmentId);\n    event ContributionAdded(uint _bountyId, address indexed _contributor, uint256 _value);\n    event BountyClosed(uint _bountyId, address indexed _issuer);\n    event PayoutChanged(uint _bountyId, uint _newFulfillmentAmount);\n\n    /* Modifiers */\n    /// @notice Checks that the amount is not equal to zero\n    /// @dev To be used in situations like funding a bounty and setting the bounty fulfillment reward\n    /// @param _amount The amount to be checked\n    modifier amountIsNotZero(uint256 _amount) {\n        require (\n            _amount != 0,\n            \"The amount cannot be zero.\"\n            );\n        _;\n    }\n\n    /// @notice Checks that the bounty array won't overflow\n    /// @dev To be used before a new bounty is created\n    modifier validateNotTooManyBounties() {\n        require(\n            (bounties.length + 1) > bounties.length,\n            \"There are too many bounties registered, causing an overflow.\"\n            );\n        _;\n    }\n\n    /// @dev Cheap way to convert string to int  \n    function parseInt(string _a, uint _b) internal pure returns (uint) {\n        bytes memory bresult = bytes(_a);\n        uint mint = 0;\n        bool decimals = false;\n        for (uint i = 0; i < bresult.length; i++) {\n            if ((bresult[i] >= 48) && (bresult[i] <= 57)) {\n            if (decimals) {\n                if (_b == 0) break;\n                else _b--;\n            }\n            mint *= 10;\n            mint += uint(bresult[i]) - 48;\n            } else if (bresult[i] == 46) decimals = true;\n        }\n        return mint;\n    }\n\n    /// @notice Checks that the number of fulfillments won't overflow for a specific bounty\n    /// @dev To be used before a new fulfillment is created for a bounty\n    /// @param _bountyId The bounty to check fulfillments for\n    modifier validateNotTooManyFulfillments(uint _bountyId) {\n        require(\n            (fulfillments[_bountyId].length + 1) > fulfillments[_bountyId].length,\n            \"There are too many fulfillments for this bounty, causing an overflow.\"\n            );\n        _;\n    }\n\n    /// @notice Checks that a specific Bounty ID is within the range of registered bounties\n    /// @dev To be used in any situation where we are accessing an existing bounty\n    /// @param _bountyId The Bounty ID to validate\n    modifier validateBountyArrayIndex(uint _bountyId){\n        require(\n            _bountyId < bounties.length,\n            \"Invalid Bounty ID.\"\n            );\n        _;\n    }\n\n    /// @notice Checks that a specific profile has enough followers\n    /// @param _bountyId The Bounty ID to validate\n    /// @param _postId The  post ID to extract profile from\n    modifier validateFollowersCount(uint _bountyId, string _postId){\n        require(\n             parseInt(bounties[_bountyId].follows,0) <= parseInt(getFollowers(_postId.toSlice().split(\"/\".toSlice()).toString()),0),\n            \"There are not enough followers to claim the reward.\"\n            );\n        _;\n    }\n\n    /// @notice Checks that a specific Bounty ID is open\n    /// @dev To be used in any situation where a bounty is being modified or fulfilled\n    /// @param _bountyId The Bounty ID to check if open\n    modifier isOpen(uint _bountyId) {\n        require(\n            bounties[_bountyId].bountyOpen == true,\n            \"Bounty is not open.\"\n            );\n        _;\n    }\n\n    /// @notice Checks that the the function is being called by the owner of the bounty\n    /// @dev To be used in any situation where the function performs a privledged action to the bounty\n    /// @param _bountyId The Bounty ID to check the owner of\n    modifier onlyIssuer(uint _bountyId) {\n        require(\n            bounties[_bountyId].issuer == msg.sender || msg.sender == owner,\n            \"Only the issuer of this bounty can call this function.\"\n            );\n        _;\n    }\n\n    /// @notice Checks that the the function is being called by the owner of the bounty\n    /// @dev To be used in any situation where the function performs a privledged action to the bounty\n    /// @param _bountyId The Bounty ID to check the owner of\n    modifier onlyIssuerOrOwner(uint _bountyId) {\n        require(\n            bounties[_bountyId].issuer == msg.sender || msg.sender == owner,\n            \"Only the issuer of this bounty or owner can call this function.\"\n            );\n        _;\n    }\n\n    /// @notice Checking that they are eligible for the call\n    modifier onlyIfEnoughCalls() {\n        require(\n            availableCalls[msg.sender] > 0,\n            \"Can't create campaign without initializing it first.\"\n            );\n        _;\n    }\n    \n    /// @notice Checks that the bounty has enough of a balance to pay a fulfillment\n    /// @dev To be used before a fulfillment is completed\n    /// @param _bountyId The Bounty ID to check the balance of\n    modifier enoughFundsToPay(uint _bountyId) {\n        require(\n            bounties[_bountyId].balance >= bounties[_bountyId].fulfillmentAmount,\n            \"The fulfillment amount is more than the balance available for this bounty.\"\n            );\n        _;\n    }\n\n    /// @notice Checks that a specific Fulfillment ID is within the range of fullfillments for a bounty\n    /// @dev To be used in any situation where we are accessing a fulfillment\n    /// @param _bountyId The Bounty ID which has the fulfillment to be checked\n    /// @param _index The index of the fulfillment to be checked\n    modifier validateFulfillmentArrayIndex(uint _bountyId, uint _index) {\n        require(\n            _index < fulfillments[_bountyId].length,\n            \"Invalid Fulfillment ID.\"\n            );\n        _;\n    }\n\n    /// @notice Check that the text for a tweet is not empty\n    /// @dev An empty tweet text implies that the tweet was not oraclized, or failed to oraclize\n    /// @param _postId The tweet id to check. Expecting \"<user>/status/<id>\"\n    modifier tweetTextNotEmpty(string _postId) {\n        require(\n            keccak256(abi.encodePacked(getTweetText(_postId))) != keccak256(\"\"),\n            \"The tweet text is empty. This tweet may have never been oraclized, or may have run into an issue when oraclizing.\"\n            );\n        _;\n    }\n\n    /* Functions */\n    /// @notice Constructor function which establishes the contract owner and initializes the Twitter Oracle address\n    /// @dev Ownership can be managed through Open-Zeppelin's Ownable.sol which this contract uses. Oracle address can be updated using SetOracle\n    /// @param _addr The address of the Twitter Oracle contract\n    constructor(address _addr)\n    public\n    {\n        owner = msg.sender;\n        setOracle(_addr);\n    }\n\n    /// @notice The fallback function for the contract\n    /// @dev Will simply revert any unexpected calls\n    function()\n    public\n    {\n        revert(\"Fallback function. Reverting...\");\n    }\n\n    /// @notice Allows the contract to update the Twitter Oracle it uses for creating bounties\n    /// @dev Only the owner of this contract can call this function\n    /// @param _addr The address of the Twitter Oracle contract\n    function setOracle(address _addr)\n    public\n    onlyOwner\n    {\n        oracleContract = TopicShareOracle(_addr);\n    }\n\n    function getFee()\n    public\n    view\n    returns\n    (uint)\n    {\n        return costPerCall;\n    }\n\n    /// @dev Only the owner of this contract can call this function\n    /// @param _cost the cost of creating a campaign\n    function setCallCost(uint _cost)\n    public\n    onlyOwner\n    {\n        costPerCall = _cost;\n    }\n\n    /// @notice This function allows anyone to add additional funds to an open bounty\n    /// @dev Note that these funds are under full control of the bounty creator, and the bounty can be closed and drained at any time\n    /// @param _bountyId The bounty that the user wants to contribute to\n    function contribute(uint _bountyId)\n    public\n    payable\n    whenNotPaused\n    validateBountyArrayIndex(_bountyId)\n    isOpen(_bountyId)\n    {\n        bounties[_bountyId].balance += msg.value;\n        emit ContributionAdded(_bountyId, msg.sender, msg.value);\n    }\n\n    /// @notice Allows anyone to buy calls for creating campaigns\n    function buyCalls() \n    public \n    payable\n    {\n        require(msg.value > 0, \"You need to send some ether with the transaction!\");\n        owner.transfer(msg.value);\n        uint callsPurchased = msg.value / costPerCall;\n        availableCalls[msg.sender] += callsPurchased;\n        emit BountyBought(callsPurchased);\n    }\n\n    /// @notice This function will create a new open bounty using a stored tweet text\n    /// @dev This function only works if the contract is not paused, if the fulfillment is greater than zero, there are room to make more bounties, and the tweet text has content.\n    /// @param _fulfillmentAmount The amount a user will be paid when they fulfill a bounty\n    /// @param _postId The post that will be used to establish the text requirements for this bounty\n    /// @param _topic The amount a user will be paid when they fulfill a bounty\n    /// @param _follows The post that will be used to establish the text requirements for this bounty\n    /// @return The bountyId that was created as a result of this function call\n    function createBounty (\n        uint256 _fulfillmentAmount,\n        string _postId,\n        string _topic,\n        string _follows\n    )\n    public\n    payable\n    whenNotPaused\n    onlyIfEnoughCalls\n    amountIsNotZero(_fulfillmentAmount)\n    validateNotTooManyBounties\n    tweetTextNotEmpty(_postId)\n    returns (uint)\n    {\n        bounties.push(Bounty(msg.sender, _fulfillmentAmount, msg.value, getTweetText(_postId), _topic, _follows, true));\n        bounties[bounties.length - 1].tweetsUsed[keccak256(abi.encodePacked(_postId))] = true;\n        availableCalls[msg.sender]--;\n        emit BountyCreated(bounties.length - 1);\n        return (bounties.length - 1);\n    }\n    /// @notice This function allows any user to fulfill an open bounty using a post saved to the Twitter Oracle contract, and will automatically pay out\n    /// @dev This function only works if there are enough funds to pay someone and if the bounty is open.\n    /// @param _bountyId The bounty that the user is trying to fulfill\n    /// @param _postId The Twitter post that will be used to try and fulfill the bounty\n    /// @return Returns true if fulfillment completes. Can be used to check the function before it is actually run using .call()\n    function fulfillBounty(uint _bountyId, string _postId)\n    public\n    whenNotPaused\n    validateBountyArrayIndex(_bountyId)\n    validateNotTooManyFulfillments(_bountyId)\n    isOpen(_bountyId)\n    enoughFundsToPay(_bountyId)\n    validateFollowersCount(_bountyId, _postId)\n    returns (bool)\n    {\n        require(\n            bounties[_bountyId].tweetsUsed[keccak256(abi.encodePacked(_postId))] != true,\n            \"The tweet you are trying to use has already been used for this bounty.\"\n            );\n        require(\n            keccak256(abi.encodePacked(bounties[_bountyId].tweetText)) == keccak256(abi.encodePacked(getTweetText(_postId))),\n            \"The tweet you are trying to use does not match the bounty text.\"\n            );\n\n        bounties[_bountyId].tweetsUsed[keccak256(abi.encodePacked(_postId))] = true;\n        fulfillments[_bountyId].push(Fulfillment(bounties[_bountyId].fulfillmentAmount, msg.sender, _postId));\n        bounties[_bountyId].balance -= bounties[_bountyId].fulfillmentAmount;\n        msg.sender.transfer(bounties[_bountyId].fulfillmentAmount);\n        emit BountyFulfilled(_bountyId, msg.sender, (fulfillments[_bountyId].length - 1));\n        return true;\n    }\n\n    /// @notice This function allows the owner of a bounty to change the fulfillment amount for that bounty\n    /// @dev This function requires that the new fulfillment amount is less than available balance for the bounty, which is why this function is also payable\n    /// @param _bountyId The bounty the owner is trying to changet the fulfillment amount for\n    /// @param _newFulfillmentAmount The new amount that users who fulfill the bounty will be paid \n    function changePayout(uint _bountyId, uint _newFulfillmentAmount)\n    public\n    payable\n    whenNotPaused\n    validateBountyArrayIndex(_bountyId)\n    onlyIssuer(_bountyId)\n    isOpen(_bountyId)\n    {\n        bounties[_bountyId].balance += msg.value;\n        require(\n            bounties[_bountyId].balance >= _newFulfillmentAmount,\n            \"Make sure the fulfillment amount is not more than the current bounty balance.\"\n            );\n        bounties[_bountyId].fulfillmentAmount = _newFulfillmentAmount;\n        emit PayoutChanged(_bountyId, _newFulfillmentAmount);\n    }\n\n    /// @notice This function allows the owner of a bounty to close that bounty, and drain all funds from the bounty\n    /// @dev Only the bounty creator can call this function\n    /// @param _bountyId The bounty the owner wants to close\n    function closeBounty(uint _bountyId)\n    public\n    whenNotPaused\n    validateBountyArrayIndex(_bountyId)\n    onlyIssuerOrOwner(_bountyId)\n    {\n        bounties[_bountyId].bountyOpen = false;\n        uint tempBalance = bounties[_bountyId].balance;\n        bounties[_bountyId].balance = 0;\n        if (tempBalance > 0) {\n            bounties[_bountyId].issuer.transfer(tempBalance);\n        }\n        emit BountyClosed(_bountyId, msg.sender);\n    }\n\n    /// @notice Returns the details of a bounty\n    /// @dev It does not include the mapping of tweets used to fulfill the bounty\n    /// @param _bountyId The bounty that should be retrieved\n    /// @return A tuple of the bounty details\n    function getBounty(uint _bountyId)\n    public\n    view\n    validateBountyArrayIndex(_bountyId)\n    returns (address, string, string, string, uint, uint, bool)\n    {\n        return (\n            bounties[_bountyId].issuer,\n            bounties[_bountyId].tweetText,\n            bounties[_bountyId].topic,\n            bounties[_bountyId].follows,\n            bounties[_bountyId].fulfillmentAmount,\n            bounties[_bountyId].balance,\n            bounties[_bountyId].bountyOpen\n        );\n    }\n\n    /// @notice Checks if a specific Tweet has already been used for a bounty\n    /// @dev Can be used to proactively check for problems before the user submits a transaction\n    /// @param _bountyId The bounty to check for tweets used\n    /// @param _postId The twitter post to check if it was already used\n    /// @return Returns true if the post has been used, otherwise it returns false\n    function checkBountyTweetsUsed(uint _bountyId, string _postId)\n    public\n    view\n    validateBountyArrayIndex(_bountyId)\n    returns (bool)\n    {\n        return (bounties[_bountyId].tweetsUsed[keccak256(abi.encodePacked(_postId))]);\n    }\n\n    /// @return Returns true if the post has been used, otherwise it returns false\n    function checkCalls()\n    public\n    view\n    returns (bool)\n    {\n        return availableCalls[msg.sender] > 0;\n    }\n\n    /// @notice Returns the number of bounties registered in the contract\n    /// @dev Can be used to iterate over all the bounties in the contract\n    /// @return Returns the number of bounties\n    function getNumBounties()\n    public\n    view\n    returns (uint)\n    {\n        return bounties.length;\n    }\n\n    /// @notice Returns the number of fulfillments completed for a bounty\n    /// @dev Can be used to iterate over all the fulfillments for a bounty\n    /// @param _bountyId The bounty to get the number of fulfillments for\n    /// @return Returns the number of fulfillments for a bounty\n    function getNumFulfillments(uint _bountyId)\n    public\n    view\n    returns (uint)\n    {\n        return fulfillments[_bountyId].length;\n    }\n\n    /// @notice Gets the fulfillment details for a specific bounty and fulfillment\n    /// @param _bountyId The bounty which has the fulfillment to be returned\n    /// @param _fulfillmentId The fulfillment to be returned\n    /// @return Returns a tuple of details for the fulfillment\n    function getFulfillment(uint _bountyId, uint _fulfillmentId)\n    public\n    view\n    validateBountyArrayIndex(_bountyId)\n    validateFulfillmentArrayIndex(_bountyId, _fulfillmentId)\n    returns (uint256, address, string)\n    {\n        return (\n            fulfillments[_bountyId][_fulfillmentId].fulfillmentAmount,\n            fulfillments[_bountyId][_fulfillmentId].fulfiller,\n            fulfillments[_bountyId][_fulfillmentId].tweetId\n        );\n    }\n\n    /* Twitter Oracle Functions */\n    /// @notice Gets the tweet text for a twitter post from the Twitter Oracle\n    /// @dev Simply a passthrough function for the Twitter Oracle contract\n    /// @param _postId The twitter post to get the text for\n    /// @return Returns text for the twitter post, or in the case where the post hasn't been stored yet, it will return an empty string\n    function getTweetText(string _postId)\n    public\n    view\n    returns(string)\n    {\n        return oracleContract.getTweetText(_postId);\n    }\n    /// @param _profileId The twitter post to get the text for\n    /// @return Returns text for the twitter post, or in the case where the post hasn't been stored yet, it will return an empty string\n    function getFollowers(string _profileId)\n    public\n    view\n    returns(string)\n    {\n        return oracleContract.getFollowers(_profileId);\n    }\n\n    /// @notice Requests the Twitter Oracle contract to retrieve and store the tweet text for a Twitter post\n    /// @dev The Twitter Oracle contract requires funds to support storing the Oraclize callback, which is why this function is Payable, and will forward funds to the Twitter Oracle\n    /// @param _postId The twitter post to retrieve and store in the Twitter Oracle contract\n    function oraclizeTweet(string _postId)\n    public\n    payable\n    whenNotPaused\n    {\n        oracleContract.oraclizeTweet.value(msg.value)(_postId);\n    }\n    \n    /// @param _profileId The twitter post to retrieve and store in the Twitter Oracle contract\n    function oraclizeFollowers(string _profileId)\n    public\n    payable\n    whenNotPaused\n    {\n        oracleContract.oraclizeFollowers.value(msg.value)(_profileId);\n    } \n}",
  "sourcePath": "C:/Users/brani/Desktop/TopicShare-Rinkeby/topicshare/contracts/TopicShareBounty.sol",
  "compiler": {
    "name": "solc",
    "version": "0.4.25+commit.59dbf8f1.Emscripten.clang"
  },
  "schemaVersion": "3.0.0",
  "updatedAt": "2019-03-01T03:39:06.595Z",
  "devdoc": {
    "methods": {
      "changePayout(uint256,uint256)": {
        "details": "This function requires that the new fulfillment amount is less than available balance for the bounty, which is why this function is also payable",
        "params": {
          "_bountyId": "The bounty the owner is trying to changet the fulfillment amount for",
          "_newFulfillmentAmount": "The new amount that users who fulfill the bounty will be paid "
        }
      },
      "checkBountyTweetsUsed(uint256,string)": {
        "details": "Can be used to proactively check for problems before the user submits a transaction",
        "params": {
          "_bountyId": "The bounty to check for tweets used",
          "_postId": "The twitter post to check if it was already used"
        },
        "return": "Returns true if the post has been used, otherwise it returns false"
      },
      "checkCalls()": {
        "return": "Returns true if the post has been used, otherwise it returns false"
      },
      "closeBounty(uint256)": {
        "details": "Only the bounty creator can call this function",
        "params": {
          "_bountyId": "The bounty the owner wants to close"
        }
      },
      "contribute(uint256)": {
        "details": "Note that these funds are under full control of the bounty creator, and the bounty can be closed and drained at any time",
        "params": {
          "_bountyId": "The bounty that the user wants to contribute to"
        }
      },
      "createBounty(uint256,string,string,string)": {
        "details": "This function only works if the contract is not paused, if the fulfillment is greater than zero, there are room to make more bounties, and the tweet text has content.",
        "params": {
          "_follows": "The post that will be used to establish the text requirements for this bounty",
          "_fulfillmentAmount": "The amount a user will be paid when they fulfill a bounty",
          "_postId": "The post that will be used to establish the text requirements for this bounty",
          "_topic": "The amount a user will be paid when they fulfill a bounty"
        },
        "return": "The bountyId that was created as a result of this function call"
      },
      "destroy()": {
        "details": "Transfers the current balance to the owner and terminates the contract."
      },
      "fulfillBounty(uint256,string)": {
        "details": "This function only works if there are enough funds to pay someone and if the bounty is open.",
        "params": {
          "_bountyId": "The bounty that the user is trying to fulfill",
          "_postId": "The Twitter post that will be used to try and fulfill the bounty"
        },
        "return": "Returns true if fulfillment completes. Can be used to check the function before it is actually run using .call()"
      },
      "getBounty(uint256)": {
        "details": "It does not include the mapping of tweets used to fulfill the bounty",
        "params": {
          "_bountyId": "The bounty that should be retrieved"
        },
        "return": "A tuple of the bounty details"
      },
      "getFollowers(string)": {
        "params": {
          "_profileId": "The twitter post to get the text for"
        },
        "return": "Returns text for the twitter post, or in the case where the post hasn't been stored yet, it will return an empty string"
      },
      "getFulfillment(uint256,uint256)": {
        "params": {
          "_bountyId": "The bounty which has the fulfillment to be returned",
          "_fulfillmentId": "The fulfillment to be returned"
        },
        "return": "Returns a tuple of details for the fulfillment"
      },
      "getNumBounties()": {
        "details": "Can be used to iterate over all the bounties in the contract",
        "return": "Returns the number of bounties"
      },
      "getNumFulfillments(uint256)": {
        "details": "Can be used to iterate over all the fulfillments for a bounty",
        "params": {
          "_bountyId": "The bounty to get the number of fulfillments for"
        },
        "return": "Returns the number of fulfillments for a bounty"
      },
      "getTweetText(string)": {
        "details": "Simply a passthrough function for the Twitter Oracle contract",
        "params": {
          "_postId": "The twitter post to get the text for"
        },
        "return": "Returns text for the twitter post, or in the case where the post hasn't been stored yet, it will return an empty string"
      },
      "oraclizeFollowers(string)": {
        "params": {
          "_profileId": "The twitter post to retrieve and store in the Twitter Oracle contract"
        }
      },
      "oraclizeTweet(string)": {
        "details": "The Twitter Oracle contract requires funds to support storing the Oraclize callback, which is why this function is Payable, and will forward funds to the Twitter Oracle",
        "params": {
          "_postId": "The twitter post to retrieve and store in the Twitter Oracle contract"
        }
      },
      "pause()": {
        "details": "called by the owner to pause, triggers stopped state"
      },
      "setCallCost(uint256)": {
        "details": "Only the owner of this contract can call this function",
        "params": {
          "_cost": "the cost of creating a campaign"
        }
      },
      "setOracle(address)": {
        "details": "Only the owner of this contract can call this function",
        "params": {
          "_addr": "The address of the Twitter Oracle contract"
        }
      },
      "transferOwnership(address)": {
        "details": "Allows the current owner to transfer control of the contract to a newOwner.",
        "params": {
          "newOwner": "The address to transfer ownership to."
        }
      },
      "unpause()": {
        "details": "called by the owner to unpause, returns to normal state"
      }
    }
  },
  "userdoc": {
    "methods": {
      "buyCalls()": {
        "notice": "Allows anyone to buy calls for creating campaigns"
      },
      "changePayout(uint256,uint256)": {
        "notice": "This function allows the owner of a bounty to change the fulfillment amount for that bounty"
      },
      "checkBountyTweetsUsed(uint256,string)": {
        "notice": "Checks if a specific Tweet has already been used for a bounty"
      },
      "closeBounty(uint256)": {
        "notice": "This function allows the owner of a bounty to close that bounty, and drain all funds from the bounty"
      },
      "contribute(uint256)": {
        "notice": "This function allows anyone to add additional funds to an open bounty"
      },
      "createBounty(uint256,string,string,string)": {
        "notice": "This function will create a new open bounty using a stored tweet text"
      },
      "fulfillBounty(uint256,string)": {
        "notice": "This function allows any user to fulfill an open bounty using a post saved to the Twitter Oracle contract, and will automatically pay out"
      },
      "getBounty(uint256)": {
        "notice": "Returns the details of a bounty"
      },
      "getFulfillment(uint256,uint256)": {
        "notice": "Gets the fulfillment details for a specific bounty and fulfillment"
      },
      "getNumBounties()": {
        "notice": "Returns the number of bounties registered in the contract"
      },
      "getNumFulfillments(uint256)": {
        "notice": "Returns the number of fulfillments completed for a bounty"
      },
      "getTweetText(string)": {
        "notice": "Gets the tweet text for a twitter post from the Twitter Oracle"
      },
      "oraclizeTweet(string)": {
        "notice": "Requests the Twitter Oracle contract to retrieve and store the tweet text for a Twitter post"
      },
      "setOracle(address)": {
        "notice": "Allows the contract to update the Twitter Oracle it uses for creating bounties"
      }
    }
  }
}