{
  "contractName": "TopicShareOracle",
  "abi": [
    {
      "constant": false,
      "inputs": [],
      "name": "unpause",
      "outputs": [],
      "payable": false,
      "stateMutability": "nonpayable",
      "type": "function",
      "signature": "0x3f4ba83a"
    },
    {
      "constant": true,
      "inputs": [
        {
          "name": "",
          "type": "bytes32"
        }
      ],
      "name": "oraclizeCallbacks",
      "outputs": [
        {
          "name": "oState",
          "type": "uint8"
        }
      ],
      "payable": false,
      "stateMutability": "view",
      "type": "function",
      "signature": "0x426d5ef1"
    },
    {
      "constant": true,
      "inputs": [],
      "name": "paused",
      "outputs": [
        {
          "name": "",
          "type": "bool"
        }
      ],
      "payable": false,
      "stateMutability": "view",
      "type": "function",
      "signature": "0x5c975abb"
    },
    {
      "constant": false,
      "inputs": [],
      "name": "destroy",
      "outputs": [],
      "payable": false,
      "stateMutability": "nonpayable",
      "type": "function",
      "signature": "0x83197ef0"
    },
    {
      "constant": false,
      "inputs": [],
      "name": "pause",
      "outputs": [],
      "payable": false,
      "stateMutability": "nonpayable",
      "type": "function",
      "signature": "0x8456cb59"
    },
    {
      "constant": true,
      "inputs": [],
      "name": "owner",
      "outputs": [
        {
          "name": "",
          "type": "address"
        }
      ],
      "payable": false,
      "stateMutability": "view",
      "type": "function",
      "signature": "0x8da5cb5b"
    },
    {
      "constant": true,
      "inputs": [
        {
          "name": "",
          "type": "bytes32"
        }
      ],
      "name": "tweetTexts",
      "outputs": [
        {
          "name": "",
          "type": "string"
        }
      ],
      "payable": false,
      "stateMutability": "view",
      "type": "function",
      "signature": "0xaafe8a1a"
    },
    {
      "constant": false,
      "inputs": [
        {
          "name": "newOwner",
          "type": "address"
        }
      ],
      "name": "transferOwnership",
      "outputs": [],
      "payable": false,
      "stateMutability": "nonpayable",
      "type": "function",
      "signature": "0xf2fde38b"
    },
    {
      "constant": false,
      "inputs": [
        {
          "name": "_recipient",
          "type": "address"
        }
      ],
      "name": "destroyAndSend",
      "outputs": [],
      "payable": false,
      "stateMutability": "nonpayable",
      "type": "function",
      "signature": "0xf5074f41"
    },
    {
      "inputs": [],
      "payable": true,
      "stateMutability": "payable",
      "type": "constructor",
      "signature": "constructor"
    },
    {
      "payable": true,
      "stateMutability": "payable",
      "type": "fallback"
    },
    {
      "anonymous": false,
      "inputs": [
        {
          "indexed": false,
          "name": "_log",
          "type": "string"
        }
      ],
      "name": "LogInfo",
      "type": "event",
      "signature": "0xfee95ecae0c8f7f0743ec0ad254c78ab75e5ecca9f1ddcd9f11f9a98124b96bc"
    },
    {
      "anonymous": false,
      "inputs": [],
      "name": "Pause",
      "type": "event",
      "signature": "0x6985a02210a168e66602d3235cb6db0e70f92b3ba4d376a33c0f3d9434bff625"
    },
    {
      "anonymous": false,
      "inputs": [],
      "name": "Unpause",
      "type": "event",
      "signature": "0x7805862f689e2f13df9f062ff482ad3ad112aca9e0847911ed832e158c525b33"
    },
    {
      "anonymous": false,
      "inputs": [
        {
          "indexed": true,
          "name": "previousOwner",
          "type": "address"
        },
        {
          "indexed": true,
          "name": "newOwner",
          "type": "address"
        }
      ],
      "name": "OwnershipTransferred",
      "type": "event",
      "signature": "0x8be0079c531659141344cd1fd0a4f28419497f9722a3daafe3b4186f6b6457e0"
    },
    {
      "constant": false,
      "inputs": [
        {
          "name": "_id",
          "type": "bytes32"
        },
        {
          "name": "_result",
          "type": "string"
        }
      ],
      "name": "__callback",
      "outputs": [],
      "payable": false,
      "stateMutability": "nonpayable",
      "type": "function",
      "signature": "0x27dc297e"
    },
    {
      "constant": true,
      "inputs": [
        {
          "name": "myid",
          "type": "bytes32"
        },
        {
          "name": "result",
          "type": "string"
        },
        {
          "name": "proof",
          "type": "bytes"
        }
      ],
      "name": "__callback",
      "outputs": [],
      "payable": false,
      "stateMutability": "pure",
      "type": "function",
      "signature": "0x38bbfa50"
    },
    {
      "constant": true,
      "inputs": [],
      "name": "getBalance",
      "outputs": [
        {
          "name": "_balance",
          "type": "uint256"
        }
      ],
      "payable": false,
      "stateMutability": "view",
      "type": "function",
      "signature": "0x12065fe0"
    },
    {
      "constant": false,
      "inputs": [
        {
          "name": "_postId",
          "type": "string"
        }
      ],
      "name": "oraclizeTweet",
      "outputs": [],
      "payable": true,
      "stateMutability": "payable",
      "type": "function",
      "signature": "0xfae571ca"
    },
    {
      "constant": false,
      "inputs": [
        {
          "name": "_profileId",
          "type": "string"
        }
      ],
      "name": "oraclizeFollowers",
      "outputs": [],
      "payable": true,
      "stateMutability": "payable",
      "type": "function",
      "signature": "0x516586a8"
    },
    {
      "constant": true,
      "inputs": [
        {
          "name": "_postId",
          "type": "string"
        }
      ],
      "name": "getTweetText",
      "outputs": [
        {
          "name": "",
          "type": "string"
        }
      ],
      "payable": false,
      "stateMutability": "view",
      "type": "function",
      "signature": "0xcf2e2914"
    },
    {
      "constant": true,
      "inputs": [
        {
          "name": "_profileId",
          "type": "string"
        }
      ],
      "name": "getFollowers",
      "outputs": [
        {
          "name": "",
          "type": "string"
        }
      ],
      "payable": false,
      "stateMutability": "view",
      "type": "function",
      "signature": "0xd83a45f0"
    }
  ],
  "bytecode": "0x608060405260008060146101000a81548160ff021916908315150217905550336000806101000a81548173ffffffffffffffffffffffffffffffffffffffff021916908373ffffffffffffffffffffffffffffffffffffffff16021790555033600660006101000a81548173ffffffffffffffffffffffffffffffffffffffff021916908373ffffffffffffffffffffffffffffffffffffffff16021790555073146500cfd35b22e4a392fe0adc06de1a1368ed48600160006101000a81548173ffffffffffffffffffffffffffffffffffffffff021916908373ffffffffffffffffffffffffffffffffffffffff1602179055506200013160007f01000000000000000000000000000000000000000000000000000000000000000262000155640100000000026401000000009004565b6200014f63ee6b28006200050d640100000000026401000000009004565b62000ed8565b6000600160009054906101000a900473ffffffffffffffffffffffffffffffffffffffff1673ffffffffffffffffffffffffffffffffffffffff161480620001d857506000620001d6600160009054906101000a900473ffffffffffffffffffffffffffffffffffffffff1662000881640100000000026401000000009004565b145b15620001fb57620001f960006200088c640100000000026401000000009004565b505b600160009054906101000a900473ffffffffffffffffffffffffffffffffffffffff1673ffffffffffffffffffffffffffffffffffffffff166338cc48316040518163ffffffff167c0100000000000000000000000000000000000000000000000000000000028152600401602060405180830381600087803b1580156200028257600080fd5b505af115801562000297573d6000803e3d6000fd5b505050506040513d6020811015620002ae57600080fd5b810190808051906020019092919050505073ffffffffffffffffffffffffffffffffffffffff16600260009054906101000a900473ffffffffffffffffffffffffffffffffffffffff1673ffffffffffffffffffffffffffffffffffffffff161415156200041b57600160009054906101000a900473ffffffffffffffffffffffffffffffffffffffff1673ffffffffffffffffffffffffffffffffffffffff166338cc48316040518163ffffffff167c0100000000000000000000000000000000000000000000000000000000028152600401602060405180830381600087803b1580156200039d57600080fd5b505af1158015620003b2573d6000803e3d6000fd5b505050506040513d6020811015620003c957600080fd5b8101908080519060200190929190505050600260006101000a81548173ffffffffffffffffffffffffffffffffffffffff021916908373ffffffffffffffffffffffffffffffffffffffff1602179055505b600260009054906101000a900473ffffffffffffffffffffffffffffffffffffffff1673ffffffffffffffffffffffffffffffffffffffff1663688dcfd7826040518263ffffffff167c010000000000000000000000000000000000000000000000000000000002815260040180827effffffffffffffffffffffffffffffffffffffffffffffffffffffffffffff19167effffffffffffffffffffffffffffffffffffffffffffffffffffffffffffff19168152602001915050600060405180830381600087803b158015620004f157600080fd5b505af115801562000506573d6000803e3d6000fd5b5050505050565b6000600160009054906101000a900473ffffffffffffffffffffffffffffffffffffffff1673ffffffffffffffffffffffffffffffffffffffff16148062000590575060006200058e600160009054906101000a900473ffffffffffffffffffffffffffffffffffffffff1662000881640100000000026401000000009004565b145b15620005b357620005b160006200088c640100000000026401000000009004565b505b600160009054906101000a900473ffffffffffffffffffffffffffffffffffffffff1673ffffffffffffffffffffffffffffffffffffffff166338cc48316040518163ffffffff167c0100000000000000000000000000000000000000000000000000000000028152600401602060405180830381600087803b1580156200063a57600080fd5b505af11580156200064f573d6000803e3d6000fd5b505050506040513d60208110156200066657600080fd5b810190808051906020019092919050505073ffffffffffffffffffffffffffffffffffffffff16600260009054906101000a900473ffffffffffffffffffffffffffffffffffffffff1673ffffffffffffffffffffffffffffffffffffffff16141515620007d357600160009054906101000a900473ffffffffffffffffffffffffffffffffffffffff1673ffffffffffffffffffffffffffffffffffffffff166338cc48316040518163ffffffff167c0100000000000000000000000000000000000000000000000000000000028152600401602060405180830381600087803b1580156200075557600080fd5b505af11580156200076a573d6000803e3d6000fd5b505050506040513d60208110156200078157600080fd5b8101908080519060200190929190505050600260006101000a81548173ffffffffffffffffffffffffffffffffffffffff021916908373ffffffffffffffffffffffffffffffffffffffff1602179055505b600260009054906101000a900473ffffffffffffffffffffffffffffffffffffffff1673ffffffffffffffffffffffffffffffffffffffff1663ca6ad1e4826040518263ffffffff167c010000000000000000000000000000000000000000000000000000000002815260040180828152602001915050600060405180830381600087803b1580156200086557600080fd5b505af11580156200087a573d6000803e3d6000fd5b5050505050565b6000813b9050919050565b6000620008a7620008ae640100000000026401000000009004565b9050919050565b600080620008df731d3b2638a7cc9f2cb3d298a3da7a90b67e5506ed62000881640100000000026401000000009004565b11156200099457731d3b2638a7cc9f2cb3d298a3da7a90b67e5506ed600160006101000a81548173ffffffffffffffffffffffffffffffffffffffff021916908373ffffffffffffffffffffffffffffffffffffffff1602179055506200098a6040805190810160405280600b81526020017f6574685f6d61696e6e657400000000000000000000000000000000000000000081525062000e0d640100000000026401000000009004565b6001905062000e0a565b6000620009c473c03a2615d5efaf5f49f60b7bb6583eaec212fdf162000881640100000000026401000000009004565b111562000a795773c03a2615d5efaf5f49f60b7bb6583eaec212fdf1600160006101000a81548173ffffffffffffffffffffffffffffffffffffffff021916908373ffffffffffffffffffffffffffffffffffffffff16021790555062000a6f6040805190810160405280600c81526020017f6574685f726f707374656e33000000000000000000000000000000000000000081525062000e0d640100000000026401000000009004565b6001905062000e0a565b600062000aa973b7a07bcf2ba2f2703b24c0691b5278999c59ac7e62000881640100000000026401000000009004565b111562000b5e5773b7a07bcf2ba2f2703b24c0691b5278999c59ac7e600160006101000a81548173ffffffffffffffffffffffffffffffffffffffff021916908373ffffffffffffffffffffffffffffffffffffffff16021790555062000b546040805190810160405280600981526020017f6574685f6b6f76616e000000000000000000000000000000000000000000000081525062000e0d640100000000026401000000009004565b6001905062000e0a565b600062000b8e73146500cfd35b22e4a392fe0adc06de1a1368ed4862000881640100000000026401000000009004565b111562000c435773146500cfd35b22e4a392fe0adc06de1a1368ed48600160006101000a81548173ffffffffffffffffffffffffffffffffffffffff021916908373ffffffffffffffffffffffffffffffffffffffff16021790555062000c396040805190810160405280600b81526020017f6574685f72696e6b65627900000000000000000000000000000000000000000081525062000e0d640100000000026401000000009004565b6001905062000e0a565b600062000c73736f485c8bf6fc43ea212e93bbf8ce046c7f1cb47562000881640100000000026401000000009004565b111562000cd957736f485c8bf6fc43ea212e93bbf8ce046c7f1cb475600160006101000a81548173ffffffffffffffffffffffffffffffffffffffff021916908373ffffffffffffffffffffffffffffffffffffffff1602179055506001905062000e0a565b600062000d097320e12a1f859b3feae5fb2a0a32c18f5a65555bbf62000881640100000000026401000000009004565b111562000d6f577320e12a1f859b3feae5fb2a0a32c18f5a65555bbf600160006101000a81548173ffffffffffffffffffffffffffffffffffffffff021916908373ffffffffffffffffffffffffffffffffffffffff1602179055506001905062000e0a565b600062000d9f7351efaf4c8b3c9afbd5ab9f4bbc82784ab6ef8faa62000881640100000000026401000000009004565b111562000e05577351efaf4c8b3c9afbd5ab9f4bbc82784ab6ef8faa600160006101000a81548173ffffffffffffffffffffffffffffffffffffffff021916908373ffffffffffffffffffffffffffffffffffffffff1602179055506001905062000e0a565b600090505b90565b806003908051906020019062000e2592919062000e29565b5050565b828054600181600116156101000203166002900490600052602060002090601f016020900481019282601f1062000e6c57805160ff191683800117855562000e9d565b8280016001018555821562000e9d579182015b8281111562000e9c57825182559160200191906001019062000e7f565b5b50905062000eac919062000eb0565b5090565b62000ed591905b8082111562000ed157600081600090555060010162000eb7565b5090565b90565b6130d28062000ee86000396000f3006080604052600436106100e6576000357c0100000000000000000000000000000000000000000000000000000000900463ffffffff16806312065fe01461014357806327dc297e1461016e57806338bbfa50146101e55780633f4ba83a146102a2578063426d5ef1146102b9578063516586a81461030c5780635c975abb1461036857806383197ef0146103975780638456cb59146103ae5780638da5cb5b146103c5578063aafe8a1a1461041c578063cf2e2914146104c6578063d83a45f0146105a8578063f2fde38b1461068a578063f5074f41146106cd578063fae571ca14610710575b6000809054906101000a900473ffffffffffffffffffffffffffffffffffffffff1673ffffffffffffffffffffffffffffffffffffffff163373ffffffffffffffffffffffffffffffffffffffff1614151561014157600080fd5b005b34801561014f57600080fd5b5061015861076c565b6040518082815260200191505060405180910390f35b34801561017a57600080fd5b506101e36004803603810190808035600019169060200190929190803590602001908201803590602001908080601f016020809104026020016040519081016040528093929190818152602001838380828437820191505050505050919291929050505061078b565b005b3480156101f157600080fd5b506102a06004803603810190808035600019169060200190929190803590602001908201803590602001908080601f0160208091040260200160405190810160405280939291908181526020018383808284378201915050505050509192919290803590602001908201803590602001908080601f0160208091040260200160405190810160405280939291908181526020018383808284378201915050505050509192919290505050610e8b565b005b3480156102ae57600080fd5b506102b7610e90565b005b3480156102c557600080fd5b506102e86004803603810190808035600019169060200190929190505050610f4e565b604051808260018111156102f857fe5b60ff16815260200191505060405180910390f35b610366600480360381019080803590602001908201803590602001908080601f0160208091040260200160405190810160405280939291908181526020018383808284378201915050505050509192919290505050610f79565b005b34801561037457600080fd5b5061037d61131f565b604051808215151515815260200191505060405180910390f35b3480156103a357600080fd5b506103ac611332565b005b3480156103ba57600080fd5b506103c36113c7565b005b3480156103d157600080fd5b506103da611487565b604051808273ffffffffffffffffffffffffffffffffffffffff1673ffffffffffffffffffffffffffffffffffffffff16815260200191505060405180910390f35b34801561042857600080fd5b5061044b60048036038101908080356000191690602001909291905050506114ad565b6040518080602001828103825283818151815260200191508051906020019080838360005b8381101561048b578082015181840152602081019050610470565b50505050905090810190601f1680156104b85780820380516001836020036101000a031916815260200191505b509250505060405180910390f35b3480156104d257600080fd5b5061052d600480360381019080803590602001908201803590602001908080601f016020809104026020016040519081016040528093929190818152602001838380828437820191505050505050919291929050505061155d565b6040518080602001828103825283818151815260200191508051906020019080838360005b8381101561056d578082015181840152602081019050610552565b50505050905090810190601f16801561059a5780820380516001836020036101000a031916815260200191505b509250505060405180910390f35b3480156105b457600080fd5b5061060f600480360381019080803590602001908201803590602001908080601f01602080910402602001604051908101604052809392919081815260200183838082843782019150505050505091929192905050506116ee565b6040518080602001828103825283818151815260200191508051906020019080838360005b8381101561064f578082015181840152602081019050610634565b50505050905090810190601f16801561067c5780820380516001836020036101000a031916815260200191505b509250505060405180910390f35b34801561069657600080fd5b506106cb600480360381019080803573ffffffffffffffffffffffffffffffffffffffff16906020019092919050505061187f565b005b3480156106d957600080fd5b5061070e600480360381019080803573ffffffffffffffffffffffffffffffffffffffff1690602001909291905050506119d4565b005b61076a600480360381019080803590602001908201803590602001908080601f0160208091040260200160405190810160405280939291908181526020018383808284378201915050505050509192919290505050611a48565b005b60003073ffffffffffffffffffffffffffffffffffffffff1631905090565b610793612fe2565b600080600060149054906101000a900460ff161515156107b257600080fd5b6107ba611e15565b73ffffffffffffffffffffffffffffffffffffffff163373ffffffffffffffffffffffffffffffffffffffff161415156108a8576040517f08c379a00000000000000000000000000000000000000000000000000000000081526004018080602001828103825260498152602001807f5468652063616c6c6572206f6620746869732066756e6374696f6e206973206e81526020017f6f7420746865206f66666963616c204f7261636c697a652043616c6c6261636b81526020017f20416464726573732e000000000000000000000000000000000000000000000081525060600191505060405180910390fd5b600b60008660001916600019168152602001908152602001600020602060405190810160405290816000820160009054906101000a900460ff1660018111156108ed57fe5b60018111156108f857fe5b8152505092506000600181111561090b57fe5b8360000151600181111561091b57fe5b1415610bc3576109dd6008600087600019166000191681526020019081526020016000208054600181600116156101000203166002900480601f0160208091040260200160405190810160405280929190818152602001828054600181600116156101000203166002900480156109d35780601f106109a8576101008083540402835291602001916109d3565b820191906000526020600020905b8154815290600101906020018083116109b657829003601f168201915b5050505050612177565b1515610a9d576040517f08c379a00000000000000000000000000000000000000000000000000000000081526004018080602001828103825260518152602001807f546865204f7261636c697a6520717565727920494420646f6573206e6f74206d81526020017f6174636820616e204f7261636c697a652072657175657374206d61646520667281526020017f6f6d207468697320636f6e74726163742e00000000000000000000000000000081525060600191505060405180910390fd5b6008600086600019166000191681526020019081526020016000206040516020018082805460018160011615610100020316600290048015610b165780601f10610af4576101008083540402835291820191610b16565b820191906000526020600020905b815481529060010190602001808311610b02575b50509150506040516020818303038152906040526040518082805190602001908083835b602083101515610b5f5780518252602082019150602081019050602083039250610b3a565b6001836020036101000a03801982511681845116808217855250505050505090500191505060405180910390209150836007600084600019166000191681526020019081526020016000209080519060200190610bbd929190613001565b50610e84565b600180811115610bcf57fe5b83600001516001811115610bdf57fe5b1415610e8357610ca16009600087600019166000191681526020019081526020016000208054600181600116156101000203166002900480601f016020809104026020016040519081016040528092919081815260200182805460018160011615610100020316600290048015610c975780601f10610c6c57610100808354040283529160200191610c97565b820191906000526020600020905b815481529060010190602001808311610c7a57829003601f168201915b5050505050612177565b1515610d61576040517f08c379a00000000000000000000000000000000000000000000000000000000081526004018080602001828103825260518152602001807f546865204f7261636c697a6520717565727920494420646f6573206e6f74206d81526020017f6174636820616e204f7261636c697a652072657175657374206d61646520667281526020017f6f6d207468697320636f6e74726163742e00000000000000000000000000000081525060600191505060405180910390fd5b6009600086600019166000191681526020019081526020016000206040516020018082805460018160011615610100020316600290048015610dda5780601f10610db8576101008083540402835291820191610dda565b820191906000526020600020905b815481529060010190602001808311610dc6575b50509150506040516020818303038152906040526040518082805190602001908083835b602083101515610e235780518252602082019150602081019050602083039250610dfe565b6001836020036101000a0380198251168184511680821785525050505050509050019150506040518091039020905083600a600083600019166000191681526020019081526020016000209080519060200190610e81929190613001565b505b5b5050505050565b505050565b6000809054906101000a900473ffffffffffffffffffffffffffffffffffffffff1673ffffffffffffffffffffffffffffffffffffffff163373ffffffffffffffffffffffffffffffffffffffff16141515610eeb57600080fd5b600060149054906101000a900460ff161515610f0657600080fd5b60008060146101000a81548160ff0219169083151502179055507f7805862f689e2f13df9f062ff482ad3ad112aca9e0847911ed832e158c525b3360405160405180910390a1565b600b6020528060005260406000206000915090508060000160009054906101000a900460ff16905081565b606060008060149054906101000a900460ff16151515610f9857600080fd5b3073ffffffffffffffffffffffffffffffffffffffff1631610fee6040805190810160405280600381526020017f55524c000000000000000000000000000000000000000000000000000000000081525061219c565b11156110ad577ffee95ecae0c8f7f0743ec0ad254c78ab75e5ecca9f1ddcd9f11f9a98124b96bc60405180806020018281038252604b8152602001807f4f7261636c697a6520717565727920776173204e4f542073656e742c20706c6581526020017f6173652061646420736f6d652045544820746f20636f76657220666f7220746881526020017f652071756572792066656500000000000000000000000000000000000000000081525060600191505060405180910390a161131a565b7ffee95ecae0c8f7f0743ec0ad254c78ab75e5ecca9f1ddcd9f11f9a98124b96bc6040518080602001828103825260358152602001807f4f7261636c697a65207175657279207761732073656e742c207374616e64696e81526020017f6720627920666f722074686520616e737765722e2e000000000000000000000081525060400191505060405180910390a18260405160200180807f68746d6c2868747470733a2f2f747769747465722e636f6d2f0000000000000081525060190182805190602001908083835b60208310151561119c5780518252602082019150602081019050602083039250611177565b6001836020036101000a038019825116818451168082178552505050505050905001807f292e7870617468287472616e736c61746528737562737472696e672d6265666f81526020017f7265282f2f615b40646174612d6e61763d27666f6c6c6f77657273275d2f407481526020017f69746c655b315d2c272027292c272e272c27272929000000000000000000000081525060550191505060405160208183030381529060405291506112856040805190810160405280600381526020017f55524c000000000000000000000000000000000000000000000000000000000081525083612570565b90508260096000836000191660001916815260200190815260200160002090805190602001906112b6929190613001565b506020604051908101604052806001808111156112cf57fe5b815250600b6000836000191660001916815260200190815260200160002060008201518160000160006101000a81548160ff0219169083600181111561131157fe5b02179055509050505b505050565b600060149054906101000a900460ff1681565b6000809054906101000a900473ffffffffffffffffffffffffffffffffffffffff1673ffffffffffffffffffffffffffffffffffffffff163373ffffffffffffffffffffffffffffffffffffffff1614151561138d57600080fd5b6000809054906101000a900473ffffffffffffffffffffffffffffffffffffffff1673ffffffffffffffffffffffffffffffffffffffff16ff5b6000809054906101000a900473ffffffffffffffffffffffffffffffffffffffff1673ffffffffffffffffffffffffffffffffffffffff163373ffffffffffffffffffffffffffffffffffffffff1614151561142257600080fd5b600060149054906101000a900460ff1615151561143e57600080fd5b6001600060146101000a81548160ff0219169083151502179055507f6985a02210a168e66602d3235cb6db0e70f92b3ba4d376a33c0f3d9434bff62560405160405180910390a1565b600660009054906101000a900473ffffffffffffffffffffffffffffffffffffffff1681565b60076020528060005260406000206000915090508054600181600116156101000203166002900480601f0160208091040260200160405190810160405280929190818152602001828054600181600116156101000203166002900480156115555780601f1061152a57610100808354040283529160200191611555565b820191906000526020600020905b81548152906001019060200180831161153857829003601f168201915b505050505081565b60606000826040516020018082805190602001908083835b60208310151561159a5780518252602082019150602081019050602083039250611575565b6001836020036101000a0380198251168184511680821785525050505050509050019150506040516020818303038152906040526040518082805190602001908083835b60208310151561160357805182526020820191506020810190506020830392506115de565b6001836020036101000a038019825116818451168082178552505050505050905001915050604051809103902090506007600082600019166000191681526020019081526020016000208054600181600116156101000203166002900480601f0160208091040260200160405190810160405280929190818152602001828054600181600116156101000203166002900480156116e15780601f106116b6576101008083540402835291602001916116e1565b820191906000526020600020905b8154815290600101906020018083116116c457829003601f168201915b5050505050915050919050565b60606000826040516020018082805190602001908083835b60208310151561172b5780518252602082019150602081019050602083039250611706565b6001836020036101000a0380198251168184511680821785525050505050509050019150506040516020818303038152906040526040518082805190602001908083835b602083101515611794578051825260208201915060208101905060208303925061176f565b6001836020036101000a03801982511681845116808217855250505050505090500191505060405180910390209050600a600082600019166000191681526020019081526020016000208054600181600116156101000203166002900480601f0160208091040260200160405190810160405280929190818152602001828054600181600116156101000203166002900480156118725780601f1061184757610100808354040283529160200191611872565b820191906000526020600020905b81548152906001019060200180831161185557829003601f168201915b5050505050915050919050565b6000809054906101000a900473ffffffffffffffffffffffffffffffffffffffff1673ffffffffffffffffffffffffffffffffffffffff163373ffffffffffffffffffffffffffffffffffffffff161415156118da57600080fd5b600073ffffffffffffffffffffffffffffffffffffffff168173ffffffffffffffffffffffffffffffffffffffff161415151561191657600080fd5b8073ffffffffffffffffffffffffffffffffffffffff166000809054906101000a900473ffffffffffffffffffffffffffffffffffffffff1673ffffffffffffffffffffffffffffffffffffffff167f8be0079c531659141344cd1fd0a4f28419497f9722a3daafe3b4186f6b6457e060405160405180910390a3806000806101000a81548173ffffffffffffffffffffffffffffffffffffffff021916908373ffffffffffffffffffffffffffffffffffffffff16021790555050565b6000809054906101000a900473ffffffffffffffffffffffffffffffffffffffff1673ffffffffffffffffffffffffffffffffffffffff163373ffffffffffffffffffffffffffffffffffffffff16141515611a2f57600080fd5b8073ffffffffffffffffffffffffffffffffffffffff16ff5b606060008060149054906101000a900460ff16151515611a6757600080fd5b3073ffffffffffffffffffffffffffffffffffffffff1631611abd6040805190810160405280600381526020017f55524c000000000000000000000000000000000000000000000000000000000081525061219c565b1115611b7c577ffee95ecae0c8f7f0743ec0ad254c78ab75e5ecca9f1ddcd9f11f9a98124b96bc60405180806020018281038252604b8152602001807f4f7261636c697a6520717565727920776173204e4f542073656e742c20706c6581526020017f6173652061646420736f6d652045544820746f20636f76657220666f7220746881526020017f652071756572792066656500000000000000000000000000000000000000000081525060600191505060405180910390a1611e10565b7ffee95ecae0c8f7f0743ec0ad254c78ab75e5ecca9f1ddcd9f11f9a98124b96bc6040518080602001828103825260358152602001807f4f7261636c697a65207175657279207761732073656e742c207374616e64696e81526020017f6720627920666f722074686520616e737765722e2e000000000000000000000081525060400191505060405180910390a18260405160200180807f68746d6c2868747470733a2f2f747769747465722e636f6d2f0000000000000081525060190182805190602001908083835b602083101515611c6b5780518252602082019150602081019050602083039250611c46565b6001836020036101000a038019825116818451168082178552505050505050905001807f292e7870617468282f2f6469765b636f6e7461696e732840636c6173732c202781526020017f7065726d616c696e6b2d74776565742d636f6e7461696e657227295d5b315d2f81526020017f2f705b636f6e7461696e732840636c6173732c202774776565742d746578742781526020017f295d2f2f74657874282929000000000000000000000000000000000000000000815250606b019150506040516020818303038152906040529150611d7a6040805190810160405280600381526020017f55524c000000000000000000000000000000000000000000000000000000000081525083612570565b9050826008600083600019166000191681526020019081526020016000209080519060200190611dab929190613001565b5060206040519081016040528060006001811115611dc557fe5b815250600b6000836000191660001916815260200190815260200160002060008201518160000160006101000a81548160ff02191690836001811115611e0757fe5b02179055509050505b505050565b600080600160009054906101000a900473ffffffffffffffffffffffffffffffffffffffff1673ffffffffffffffffffffffffffffffffffffffff161480611e8757506000611e85600160009054906101000a900473ffffffffffffffffffffffffffffffffffffffff16612b16565b145b15611e9857611e966000612b21565b505b600160009054906101000a900473ffffffffffffffffffffffffffffffffffffffff1673ffffffffffffffffffffffffffffffffffffffff166338cc48316040518163ffffffff167c0100000000000000000000000000000000000000000000000000000000028152600401602060405180830381600087803b158015611f1e57600080fd5b505af1158015611f32573d6000803e3d6000fd5b505050506040513d6020811015611f4857600080fd5b810190808051906020019092919050505073ffffffffffffffffffffffffffffffffffffffff16600260009054906101000a900473ffffffffffffffffffffffffffffffffffffffff1673ffffffffffffffffffffffffffffffffffffffff161415156120b157600160009054906101000a900473ffffffffffffffffffffffffffffffffffffffff1673ffffffffffffffffffffffffffffffffffffffff166338cc48316040518163ffffffff167c0100000000000000000000000000000000000000000000000000000000028152600401602060405180830381600087803b15801561203557600080fd5b505af1158015612049573d6000803e3d6000fd5b505050506040513d602081101561205f57600080fd5b8101908080519060200190929190505050600260006101000a81548173ffffffffffffffffffffffffffffffffffffffff021916908373ffffffffffffffffffffffffffffffffffffffff1602179055505b600260009054906101000a900473ffffffffffffffffffffffffffffffffffffffff1673ffffffffffffffffffffffffffffffffffffffff1663c281d19e6040518163ffffffff167c0100000000000000000000000000000000000000000000000000000000028152600401602060405180830381600087803b15801561213757600080fd5b505af115801561214b573d6000803e3d6000fd5b505050506040513d602081101561216157600080fd5b8101908080519060200190929190505050905090565b600060608290506000815114156121915760009150612196565b600191505b50919050565b600080600160009054906101000a900473ffffffffffffffffffffffffffffffffffffffff1673ffffffffffffffffffffffffffffffffffffffff16148061220e5750600061220c600160009054906101000a900473ffffffffffffffffffffffffffffffffffffffff16612b16565b145b1561221f5761221d6000612b21565b505b600160009054906101000a900473ffffffffffffffffffffffffffffffffffffffff1673ffffffffffffffffffffffffffffffffffffffff166338cc48316040518163ffffffff167c0100000000000000000000000000000000000000000000000000000000028152600401602060405180830381600087803b1580156122a557600080fd5b505af11580156122b9573d6000803e3d6000fd5b505050506040513d60208110156122cf57600080fd5b810190808051906020019092919050505073ffffffffffffffffffffffffffffffffffffffff16600260009054906101000a900473ffffffffffffffffffffffffffffffffffffffff1673ffffffffffffffffffffffffffffffffffffffff1614151561243857600160009054906101000a900473ffffffffffffffffffffffffffffffffffffffff1673ffffffffffffffffffffffffffffffffffffffff166338cc48316040518163ffffffff167c0100000000000000000000000000000000000000000000000000000000028152600401602060405180830381600087803b1580156123bc57600080fd5b505af11580156123d0573d6000803e3d6000fd5b505050506040513d60208110156123e657600080fd5b8101908080519060200190929190505050600260006101000a81548173ffffffffffffffffffffffffffffffffffffffff021916908373ffffffffffffffffffffffffffffffffffffffff1602179055505b600260009054906101000a900473ffffffffffffffffffffffffffffffffffffffff1673ffffffffffffffffffffffffffffffffffffffff1663524f3889836040518263ffffffff167c01000000000000000000000000000000000000000000000000000000000281526004018080602001828103825283818151815260200191508051906020019080838360005b838110156124e25780820151818401526020810190506124c7565b50505050905090810190601f16801561250f5780820380516001836020036101000a031916815260200191505b5092505050602060405180830381600087803b15801561252e57600080fd5b505af1158015612542573d6000803e3d6000fd5b505050506040513d602081101561255857600080fd5b81019080805190602001909291905050509050919050565b6000806000600160009054906101000a900473ffffffffffffffffffffffffffffffffffffffff1673ffffffffffffffffffffffffffffffffffffffff1614806125e4575060006125e2600160009054906101000a900473ffffffffffffffffffffffffffffffffffffffff16612b16565b145b156125f5576125f36000612b21565b505b600160009054906101000a900473ffffffffffffffffffffffffffffffffffffffff1673ffffffffffffffffffffffffffffffffffffffff166338cc48316040518163ffffffff167c0100000000000000000000000000000000000000000000000000000000028152600401602060405180830381600087803b15801561267b57600080fd5b505af115801561268f573d6000803e3d6000fd5b505050506040513d60208110156126a557600080fd5b810190808051906020019092919050505073ffffffffffffffffffffffffffffffffffffffff16600260009054906101000a900473ffffffffffffffffffffffffffffffffffffffff1673ffffffffffffffffffffffffffffffffffffffff1614151561280e57600160009054906101000a900473ffffffffffffffffffffffffffffffffffffffff1673ffffffffffffffffffffffffffffffffffffffff166338cc48316040518163ffffffff167c0100000000000000000000000000000000000000000000000000000000028152600401602060405180830381600087803b15801561279257600080fd5b505af11580156127a6573d6000803e3d6000fd5b505050506040513d60208110156127bc57600080fd5b8101908080519060200190929190505050600260006101000a81548173ffffffffffffffffffffffffffffffffffffffff021916908373ffffffffffffffffffffffffffffffffffffffff1602179055505b600260009054906101000a900473ffffffffffffffffffffffffffffffffffffffff1673ffffffffffffffffffffffffffffffffffffffff1663524f3889856040518263ffffffff167c01000000000000000000000000000000000000000000000000000000000281526004018080602001828103825283818151815260200191508051906020019080838360005b838110156128b857808201518184015260208101905061289d565b50505050905090810190601f1680156128e55780820380516001836020036101000a031916815260200191505b5092505050602060405180830381600087803b15801561290457600080fd5b505af1158015612918573d6000803e3d6000fd5b505050506040513d602081101561292e57600080fd5b8101908080519060200190929190505050905062030d403a02670de0b6b3a7640000018111156129645760006001029150612b0f565b600260009054906101000a900473ffffffffffffffffffffffffffffffffffffffff1673ffffffffffffffffffffffffffffffffffffffff1663adf59f9982600087876040518563ffffffff167c0100000000000000000000000000000000000000000000000000000000028152600401808481526020018060200180602001838103835285818151815260200191508051906020019080838360005b83811015612a1c578082015181840152602081019050612a01565b50505050905090810190601f168015612a495780820380516001836020036101000a031916815260200191505b50838103825284818151815260200191508051906020019080838360005b83811015612a82578082015181840152602081019050612a67565b50505050905090810190601f168015612aaf5780820380516001836020036101000a031916815260200191505b50955050505050506020604051808303818588803b158015612ad057600080fd5b505af1158015612ae4573d6000803e3d6000fd5b50505050506040513d6020811015612afb57600080fd5b810190808051906020019092919050505091505b5092915050565b6000813b9050919050565b6000612b2b612b32565b9050919050565b600080612b52731d3b2638a7cc9f2cb3d298a3da7a90b67e5506ed612b16565b1115612bf457731d3b2638a7cc9f2cb3d298a3da7a90b67e5506ed600160006101000a81548173ffffffffffffffffffffffffffffffffffffffff021916908373ffffffffffffffffffffffffffffffffffffffff160217905550612beb6040805190810160405280600b81526020017f6574685f6d61696e6e6574000000000000000000000000000000000000000000815250612fc8565b60019050612fc5565b6000612c1373c03a2615d5efaf5f49f60b7bb6583eaec212fdf1612b16565b1115612cb55773c03a2615d5efaf5f49f60b7bb6583eaec212fdf1600160006101000a81548173ffffffffffffffffffffffffffffffffffffffff021916908373ffffffffffffffffffffffffffffffffffffffff160217905550612cac6040805190810160405280600c81526020017f6574685f726f707374656e330000000000000000000000000000000000000000815250612fc8565b60019050612fc5565b6000612cd473b7a07bcf2ba2f2703b24c0691b5278999c59ac7e612b16565b1115612d765773b7a07bcf2ba2f2703b24c0691b5278999c59ac7e600160006101000a81548173ffffffffffffffffffffffffffffffffffffffff021916908373ffffffffffffffffffffffffffffffffffffffff160217905550612d6d6040805190810160405280600981526020017f6574685f6b6f76616e0000000000000000000000000000000000000000000000815250612fc8565b60019050612fc5565b6000612d9573146500cfd35b22e4a392fe0adc06de1a1368ed48612b16565b1115612e375773146500cfd35b22e4a392fe0adc06de1a1368ed48600160006101000a81548173ffffffffffffffffffffffffffffffffffffffff021916908373ffffffffffffffffffffffffffffffffffffffff160217905550612e2e6040805190810160405280600b81526020017f6574685f72696e6b656279000000000000000000000000000000000000000000815250612fc8565b60019050612fc5565b6000612e56736f485c8bf6fc43ea212e93bbf8ce046c7f1cb475612b16565b1115612eba57736f485c8bf6fc43ea212e93bbf8ce046c7f1cb475600160006101000a81548173ffffffffffffffffffffffffffffffffffffffff021916908373ffffffffffffffffffffffffffffffffffffffff16021790555060019050612fc5565b6000612ed97320e12a1f859b3feae5fb2a0a32c18f5a65555bbf612b16565b1115612f3d577320e12a1f859b3feae5fb2a0a32c18f5a65555bbf600160006101000a81548173ffffffffffffffffffffffffffffffffffffffff021916908373ffffffffffffffffffffffffffffffffffffffff16021790555060019050612fc5565b6000612f5c7351efaf4c8b3c9afbd5ab9f4bbc82784ab6ef8faa612b16565b1115612fc0577351efaf4c8b3c9afbd5ab9f4bbc82784ab6ef8faa600160006101000a81548173ffffffffffffffffffffffffffffffffffffffff021916908373ffffffffffffffffffffffffffffffffffffffff16021790555060019050612fc5565b600090505b90565b8060039080519060200190612fde929190613001565b5050565b60206040519081016040528060006001811115612ffb57fe5b81525090565b828054600181600116156101000203166002900490600052602060002090601f016020900481019282601f1061304257805160ff1916838001178555613070565b82800160010185558215613070579182015b8281111561306f578251825591602001919060010190613054565b5b50905061307d9190613081565b5090565b6130a391905b8082111561309f576000816000905550600101613087565b5090565b905600a165627a7a7230582094c511a28f3bcb31a6cfeb5abf53c690fb9897656f4c8f73580df253f36dcb7b0029",
  "source": "pragma solidity 0.4.25;\n\nimport \"installed_contracts/oraclize-api/contracts/usingOraclize.sol\";\nimport \"installed_contracts/zeppelin/contracts/ownership/Ownable.sol\";\nimport \"installed_contracts/zeppelin/contracts/lifecycle/Pausable.sol\";\nimport \"installed_contracts/zeppelin/contracts/lifecycle/Destructible.sol\";\n\n\n/// @notice This contract uses Oraclize to retrieve post text from Twitter, and store it in this contract\ncontract TopicShareOracle is Ownable, Pausable, Destructible, usingOraclize {\n\n    /* Storage */\n    address public owner;\n    mapping(bytes32 => string) public tweetTexts;\n    mapping(bytes32 => string) internal queryToPost;\n    mapping(bytes32 => string) internal followersFromPost;\n    mapping(bytes32 => string) internal followersText;\n    mapping (bytes32 => oraclizeCallback) public oraclizeCallbacks;\n    enum oraclizeState { ForTweet, ForFollowers }\n    struct oraclizeCallback { oraclizeState oState; }\n    event LogInfo (string _log);\n\n    /* Functions */\n    /// @notice The constuctor function for this contract, establishing the owner of the oracle, the intial balance of the contract, and the Oraclize Resolver address\n    /// @dev Owner management can be done through Open-Zeppelin's Ownable.sol, this contract needs ETH to function and should be initialized with funds\n    constructor()\n    payable\n    public\n    {\n        owner = msg.sender;\n        OAR = OraclizeAddrResolverI(0x146500cfd35B22E4A392Fe0aDc06De1a1368Ed48); //rinkeby  \n        oraclize_setProof(proofType_NONE);\n        oraclize_setCustomGasPrice(4000000000);\n    }\n    /// @notice The fallback function for the contract\n    function() \n    public \n    payable \n    onlyOwner\n    {}\n\n    /// @notice An internal function which checks that a particular string is not empty\n    /// @dev To be used in the Oraclize callback function to make sure the resulting text is not null\n    /// @param _s The string to check if empty/null\n    /// @return Returns false if the string is empty, and true otherwise\n    function stringNotEmpty(string _s)\n    internal\n    pure\n    returns(bool)\n    {\n        bytes memory tempString = bytes(_s);\n        if (tempString.length == 0) {\n            return false;\n        } else {\n            return true;\n        }\n    }\n    /// @notice The callback function that Oraclize calls when returning a result\n    /// @dev Will store the text of a Twitter post into this contract's storage\n    /// @param _id The query ID generated when calling oraclize_query\n    /// @param _result The result from Oraclize, should be the Twitter post text\n    function __callback(bytes32 _id, string _result)\n    public\n    whenNotPaused\n    {\n        require (\n            msg.sender == oraclize_cbAddress(),\n            \"The caller of this function is not the offical Oraclize Callback Address.\"\n        );\n\n        oraclizeCallback memory o = oraclizeCallbacks[_id];\n\n            if (o.oState == oraclizeState.ForTweet) {\n                require(stringNotEmpty(queryToPost[_id]), \"The Oraclize query ID does not match an Oraclize request made from this contract.\");\n\n                bytes32 postHash = keccak256(abi.encodePacked(queryToPost[_id]));\n                tweetTexts[postHash] = _result;\n\n            }\n            else if (o.oState == oraclizeState.ForFollowers) {\n                require(stringNotEmpty(followersFromPost[_id]), \"The Oraclize query ID does not match an Oraclize request made from this contract.\");\n                \n                bytes32 postHash_ = keccak256(abi.encodePacked(followersFromPost[_id]));\n                followersText[postHash_] = _result; \n               \n            }\n    }\n\n    /// @notice Returns the balance of this contract\n    /// @dev This contract needs ether to be able to interact with the oracle\n    /// @return Returns the ether balance of this contract\n    function getBalance()\n    public\n    view\n    returns (uint _balance)\n    {\n        return address(this).balance;\n    }\n\n    /// @notice This function iniates the oraclize process for a Twitter post\n    /// @dev This contract needs ether to be able to call the oracle, which is why this function is also payable\n    /// @param _postId The twitter post to fetch with the oracle. Expecting \"<user>/status/<id>\"\n    function oraclizeTweet(string _postId)\n    public\n    payable\n    whenNotPaused\n    {\n        // Check if we have enough remaining funds\n        if (oraclize_getPrice(\"URL\") > address(this).balance) {\n            emit LogInfo(\"Oraclize query was NOT sent, please add some ETH to cover for the query fee\");\n        } else {\n            emit LogInfo(\"Oraclize query was sent, standing by for the answer..\");\n            \n            // Using XPath to to fetch the right element in the JSON response\n            string memory query = string(abi.encodePacked(\"html(https://twitter.com/\", _postId, \").xpath(//div[contains(@class, 'permalink-tweet-container')][1]//p[contains(@class, 'tweet-text')]//text())\"));\n            bytes32 queryId = oraclize_query(\"URL\", query);\n            queryToPost[queryId] = _postId;  \n            oraclizeCallbacks[queryId] = oraclizeCallback(oraclizeState.ForTweet);\n                     \n        }\n    }\n    /// @param _profileId The twitter post to fetch with the oracle. Expecting \"<user>/status/<id>\"\n    function oraclizeFollowers(string _profileId)\n    public\n    payable\n    whenNotPaused\n    {\n        // Check if we have enough remaining funds\n        if (oraclize_getPrice(\"URL\") > address(this).balance) {\n            emit LogInfo(\"Oraclize query was NOT sent, please add some ETH to cover for the query fee\");\n        } else {\n            emit LogInfo(\"Oraclize query was sent, standing by for the answer..\");\n            // Using XPath to to fetch the right element in the JSON response\n            string memory query = string(abi.encodePacked(\"html(https://twitter.com/\", _profileId ,\").xpath(translate(substring-before(//a[@data-nav='followers']/@title[1],' '),'.',''))\"));\n            bytes32 queryId = oraclize_query(\"URL\", query);\n            followersFromPost[queryId] = _profileId;\n            oraclizeCallbacks[queryId] = oraclizeCallback(oraclizeState.ForFollowers);\n            \n        }\n    }\n    /// @notice This function returns the text of a specific Twitter post stored in this contract\n    /// @dev This function will return an empty string in the situation where the Twitter post has not been stored yet\n    /// @param _postId The twitter post to get the text of. Expeting \"<user>/status/<id>\"\n    /// @return Returns the text of the twitter post, or an empty string in the case where the post has not been stored yet\n    function getTweetText(string _postId)\n    public\n    view\n    returns(string)\n    {\n        bytes32 postHash = keccak256(abi.encodePacked(_postId));\n        return tweetTexts[postHash];\n    }\n    /// @param _profileId The twitter post to get the text of. Expeting \"<user>/status/<id>\"\n    /// @return Returns the text of the twitter post, or an empty string in the case where the post has not been stored yet\n    function getFollowers(string _profileId)\n    public\n    view\n    returns(string)\n    {\n        bytes32 postHash = keccak256(abi.encodePacked(_profileId));\n        return followersText[postHash];\n    }\n}",
  "sourcePath": "C:/Users/brani/Desktop/TopicShare-Rinkeby/topicshare/contracts/TopicShareOracle.sol",
  "compiler": {
    "name": "solc",
    "version": "0.4.25+commit.59dbf8f1.Emscripten.clang"
  },
  "schemaVersion": "3.0.0",
  "updatedAt": "2019-03-01T03:39:06.574Z",
  "devdoc": {
    "methods": {
      "__callback(bytes32,string)": {
        "details": "Will store the text of a Twitter post into this contract's storage",
        "params": {
          "_id": "The query ID generated when calling oraclize_query",
          "_result": "The result from Oraclize, should be the Twitter post text"
        }
      },
      "destroy()": {
        "details": "Transfers the current balance to the owner and terminates the contract."
      },
      "getBalance()": {
        "details": "This contract needs ether to be able to interact with the oracle",
        "return": "Returns the ether balance of this contract"
      },
      "getFollowers(string)": {
        "params": {
          "_profileId": "The twitter post to get the text of. Expeting \"<user>/status/<id>\""
        },
        "return": "Returns the text of the twitter post, or an empty string in the case where the post has not been stored yet"
      },
      "getTweetText(string)": {
        "details": "This function will return an empty string in the situation where the Twitter post has not been stored yet",
        "params": {
          "_postId": "The twitter post to get the text of. Expeting \"<user>/status/<id>\""
        },
        "return": "Returns the text of the twitter post, or an empty string in the case where the post has not been stored yet"
      },
      "oraclizeFollowers(string)": {
        "params": {
          "_profileId": "The twitter post to fetch with the oracle. Expecting \"<user>/status/<id>\""
        }
      },
      "oraclizeTweet(string)": {
        "details": "This contract needs ether to be able to call the oracle, which is why this function is also payable",
        "params": {
          "_postId": "The twitter post to fetch with the oracle. Expecting \"<user>/status/<id>\""
        }
      },
      "pause()": {
        "details": "called by the owner to pause, triggers stopped state"
      },
      "transferOwnership(address)": {
        "details": "Allows the current owner to transfer control of the contract to a newOwner.",
        "params": {
          "newOwner": "The address to transfer ownership to."
        }
      },
      "unpause()": {
        "details": "called by the owner to unpause, returns to normal state"
      }
    }
  },
  "userdoc": {
    "methods": {
      "__callback(bytes32,string)": {
        "notice": "The callback function that Oraclize calls when returning a result"
      },
      "getBalance()": {
        "notice": "Returns the balance of this contract"
      },
      "getTweetText(string)": {
        "notice": "This function returns the text of a specific Twitter post stored in this contract"
      },
      "oraclizeTweet(string)": {
        "notice": "This function iniates the oraclize process for a Twitter post"
      }
    }
  }
}